{
  "contractName": "BirdBlotter",
  "abi": [
    {
      "inputs": [],
      "stateMutability": "nonpayable",
      "type": "constructor"
    },
    {
      "anonymous": false,
      "inputs": [
        {
          "indexed": true,
          "internalType": "address",
          "name": "account",
          "type": "address"
        },
        {
          "indexed": true,
          "internalType": "address",
          "name": "sender",
          "type": "address"
        }
      ],
      "name": "AdminApproved",
      "type": "event"
    },
    {
      "anonymous": false,
      "inputs": [
        {
          "indexed": true,
          "internalType": "address",
          "name": "account",
          "type": "address"
        },
        {
          "indexed": true,
          "internalType": "address",
          "name": "sender",
          "type": "address"
        }
      ],
      "name": "AdminRevoked",
      "type": "event"
    },
    {
      "anonymous": false,
      "inputs": [
        {
          "indexed": true,
          "internalType": "address",
          "name": "owner",
          "type": "address"
        },
        {
          "indexed": true,
          "internalType": "address",
          "name": "approved",
          "type": "address"
        },
        {
          "indexed": true,
          "internalType": "uint256",
          "name": "tokenId",
          "type": "uint256"
        }
      ],
      "name": "Approval",
      "type": "event"
    },
    {
      "anonymous": false,
      "inputs": [
        {
          "indexed": true,
          "internalType": "address",
          "name": "owner",
          "type": "address"
        },
        {
          "indexed": true,
          "internalType": "address",
          "name": "operator",
          "type": "address"
        },
        {
          "indexed": false,
          "internalType": "bool",
          "name": "approved",
          "type": "bool"
        }
      ],
      "name": "ApprovalForAll",
      "type": "event"
    },
    {
      "anonymous": false,
      "inputs": [
        {
          "indexed": true,
          "internalType": "address",
          "name": "previousOwner",
          "type": "address"
        },
        {
          "indexed": true,
          "internalType": "address",
          "name": "newOwner",
          "type": "address"
        }
      ],
      "name": "OwnershipTransferred",
      "type": "event"
    },
    {
      "anonymous": false,
      "inputs": [
        {
          "indexed": true,
          "internalType": "address",
          "name": "from",
          "type": "address"
        },
        {
          "indexed": true,
          "internalType": "address",
          "name": "to",
          "type": "address"
        },
        {
          "indexed": true,
          "internalType": "uint256",
          "name": "tokenId",
          "type": "uint256"
        }
      ],
      "name": "Transfer",
      "type": "event"
    },
    {
      "inputs": [],
      "name": "_allMintsAllowed",
      "outputs": [
        {
          "internalType": "bool",
          "name": "",
          "type": "bool"
        }
      ],
      "stateMutability": "view",
      "type": "function"
    },
    {
      "inputs": [],
      "name": "_currentBatch",
      "outputs": [
        {
          "internalType": "uint256",
          "name": "",
          "type": "uint256"
        }
      ],
      "stateMutability": "view",
      "type": "function"
    },
    {
      "inputs": [],
      "name": "_ethPrice",
      "outputs": [
        {
          "internalType": "uint256",
          "name": "",
          "type": "uint256"
        }
      ],
      "stateMutability": "view",
      "type": "function"
    },
    {
      "inputs": [],
      "name": "_mintOpened",
      "outputs": [
        {
          "internalType": "bool",
          "name": "",
          "type": "bool"
        }
      ],
      "stateMutability": "view",
      "type": "function"
    },
    {
      "inputs": [],
      "name": "_moonBirdAddress",
      "outputs": [
        {
          "internalType": "address",
          "name": "",
          "type": "address"
        }
      ],
      "stateMutability": "view",
      "type": "function"
    },
    {
      "inputs": [
        {
          "internalType": "address",
          "name": "to",
          "type": "address"
        },
        {
          "internalType": "uint256",
          "name": "tokenId",
          "type": "uint256"
        }
      ],
      "name": "approve",
      "outputs": [],
      "stateMutability": "nonpayable",
      "type": "function"
    },
    {
      "inputs": [
        {
          "internalType": "address",
          "name": "admin",
          "type": "address"
        }
      ],
      "name": "approveAdmin",
      "outputs": [],
      "stateMutability": "nonpayable",
      "type": "function"
    },
    {
      "inputs": [
        {
          "internalType": "address",
          "name": "owner",
          "type": "address"
        }
      ],
      "name": "balanceOf",
      "outputs": [
        {
          "internalType": "uint256",
          "name": "",
          "type": "uint256"
        }
      ],
      "stateMutability": "view",
      "type": "function"
    },
    {
      "inputs": [],
      "name": "getAdmins",
      "outputs": [
        {
          "internalType": "address[]",
          "name": "admins",
          "type": "address[]"
        }
      ],
      "stateMutability": "view",
      "type": "function"
    },
    {
      "inputs": [
        {
          "internalType": "uint256",
          "name": "tokenId",
          "type": "uint256"
        }
      ],
      "name": "getApproved",
      "outputs": [
        {
          "internalType": "address",
          "name": "",
          "type": "address"
        }
      ],
      "stateMutability": "view",
      "type": "function"
    },
    {
      "inputs": [
        {
          "internalType": "address",
          "name": "admin",
          "type": "address"
        }
      ],
      "name": "isAdmin",
      "outputs": [
        {
          "internalType": "bool",
          "name": "",
          "type": "bool"
        }
      ],
      "stateMutability": "view",
      "type": "function"
    },
    {
      "inputs": [
        {
          "internalType": "address",
          "name": "owner",
          "type": "address"
        },
        {
          "internalType": "address",
          "name": "operator",
          "type": "address"
        }
      ],
      "name": "isApprovedForAll",
      "outputs": [
        {
          "internalType": "bool",
          "name": "",
          "type": "bool"
        }
      ],
      "stateMutability": "view",
      "type": "function"
    },
    {
      "inputs": [],
      "name": "name",
      "outputs": [
        {
          "internalType": "string",
          "name": "",
          "type": "string"
        }
      ],
      "stateMutability": "view",
      "type": "function"
    },
    {
      "inputs": [],
      "name": "owner",
      "outputs": [
        {
          "internalType": "address",
          "name": "",
          "type": "address"
        }
      ],
      "stateMutability": "view",
      "type": "function"
    },
    {
      "inputs": [
        {
          "internalType": "uint256",
          "name": "tokenId",
          "type": "uint256"
        }
      ],
      "name": "ownerOf",
      "outputs": [
        {
          "internalType": "address",
          "name": "",
          "type": "address"
        }
      ],
      "stateMutability": "view",
      "type": "function"
    },
    {
      "inputs": [],
      "name": "renounceOwnership",
      "outputs": [],
      "stateMutability": "nonpayable",
      "type": "function"
    },
    {
      "inputs": [
        {
          "internalType": "address",
          "name": "admin",
          "type": "address"
        }
      ],
      "name": "revokeAdmin",
      "outputs": [],
      "stateMutability": "nonpayable",
      "type": "function"
    },
    {
      "inputs": [
        {
          "internalType": "address",
          "name": "from",
          "type": "address"
        },
        {
          "internalType": "address",
          "name": "to",
          "type": "address"
        },
        {
          "internalType": "uint256",
          "name": "tokenId",
          "type": "uint256"
        }
      ],
      "name": "safeTransferFrom",
      "outputs": [],
      "stateMutability": "nonpayable",
      "type": "function"
    },
    {
      "inputs": [
        {
          "internalType": "address",
          "name": "from",
          "type": "address"
        },
        {
          "internalType": "address",
          "name": "to",
          "type": "address"
        },
        {
          "internalType": "uint256",
          "name": "tokenId",
          "type": "uint256"
        },
        {
          "internalType": "bytes",
          "name": "_data",
          "type": "bytes"
        }
      ],
      "name": "safeTransferFrom",
      "outputs": [],
      "stateMutability": "nonpayable",
      "type": "function"
    },
    {
      "inputs": [
        {
          "internalType": "address",
          "name": "operator",
          "type": "address"
        },
        {
          "internalType": "bool",
          "name": "approved",
          "type": "bool"
        }
      ],
      "name": "setApprovalForAll",
      "outputs": [],
      "stateMutability": "nonpayable",
      "type": "function"
    },
    {
      "inputs": [],
      "name": "symbol",
      "outputs": [
        {
          "internalType": "string",
          "name": "",
          "type": "string"
        }
      ],
      "stateMutability": "view",
      "type": "function"
    },
    {
      "inputs": [
        {
          "internalType": "address",
          "name": "from",
          "type": "address"
        },
        {
          "internalType": "address",
          "name": "to",
          "type": "address"
        },
        {
          "internalType": "uint256",
          "name": "tokenId",
          "type": "uint256"
        }
      ],
      "name": "transferFrom",
      "outputs": [],
      "stateMutability": "nonpayable",
      "type": "function"
    },
    {
      "inputs": [
        {
          "internalType": "address",
          "name": "newOwner",
          "type": "address"
        }
      ],
      "name": "transferOwnership",
      "outputs": [],
      "stateMutability": "nonpayable",
      "type": "function"
    },
    {
      "inputs": [
        {
          "internalType": "bytes4",
          "name": "interfaceId",
          "type": "bytes4"
        }
      ],
      "name": "supportsInterface",
      "outputs": [
        {
          "internalType": "bool",
          "name": "",
          "type": "bool"
        }
      ],
      "stateMutability": "view",
      "type": "function"
    },
    {
      "inputs": [
        {
          "internalType": "uint256",
          "name": "moonBirdId",
          "type": "uint256"
        },
        {
          "internalType": "address",
          "name": "account",
          "type": "address"
        }
      ],
      "name": "publicMint",
      "outputs": [],
      "stateMutability": "payable",
      "type": "function"
    },
    {
      "inputs": [
        {
          "internalType": "uint256",
          "name": "moonBirdId",
          "type": "uint256"
        },
        {
          "internalType": "address",
          "name": "account",
          "type": "address"
        }
      ],
      "name": "adminMint",
      "outputs": [],
      "stateMutability": "nonpayable",
      "type": "function"
    },
    {
      "inputs": [],
      "name": "toggleMintState",
      "outputs": [],
      "stateMutability": "nonpayable",
      "type": "function"
    },
    {
      "inputs": [],
      "name": "toggleAllMintsAllowedState",
      "outputs": [],
      "stateMutability": "nonpayable",
      "type": "function"
    },
    {
      "inputs": [
        {
          "internalType": "address",
          "name": "moonBirdAddress",
          "type": "address"
        }
      ],
      "name": "setMoonbirdAddress",
      "outputs": [],
      "stateMutability": "nonpayable",
      "type": "function"
    },
    {
      "inputs": [
        {
          "internalType": "string",
          "name": "updatedURI",
          "type": "string"
        }
      ],
      "name": "setURI",
      "outputs": [],
      "stateMutability": "nonpayable",
      "type": "function"
    },
    {
      "inputs": [
        {
          "internalType": "uint256",
          "name": "tokenId",
          "type": "uint256"
        }
      ],
      "name": "tokenURI",
      "outputs": [
        {
          "internalType": "string",
          "name": "",
          "type": "string"
        }
      ],
      "stateMutability": "view",
      "type": "function"
    },
    {
      "inputs": [],
      "name": "increateSupply",
      "outputs": [],
      "stateMutability": "nonpayable",
      "type": "function"
    },
    {
      "inputs": [],
      "name": "getMaxSupply",
      "outputs": [
        {
          "internalType": "uint256",
          "name": "",
          "type": "uint256"
        }
      ],
      "stateMutability": "view",
      "type": "function"
    },
    {
      "inputs": [
        {
          "internalType": "uint256",
          "name": "tokenId",
          "type": "uint256"
        }
      ],
      "name": "redeemBlotter",
      "outputs": [],
      "stateMutability": "nonpayable",
      "type": "function"
    },
    {
      "inputs": [
        {
          "internalType": "uint256",
          "name": "tokenId",
          "type": "uint256"
        }
      ],
      "name": "burn",
      "outputs": [],
      "stateMutability": "nonpayable",
      "type": "function"
    },
    {
      "inputs": [
        {
          "internalType": "address payable",
          "name": "_recipient",
          "type": "address"
        },
        {
          "internalType": "uint256",
          "name": "_royaltyPerCent",
          "type": "uint256"
        }
      ],
      "name": "setRoyalties",
      "outputs": [],
      "stateMutability": "nonpayable",
      "type": "function"
    },
    {
      "inputs": [
        {
          "internalType": "uint256",
          "name": "salePrice",
          "type": "uint256"
        }
      ],
      "name": "royaltyInfo",
      "outputs": [
        {
          "internalType": "address",
          "name": "",
          "type": "address"
        },
        {
          "internalType": "uint256",
          "name": "",
          "type": "uint256"
        }
      ],
      "stateMutability": "view",
      "type": "function"
    },
    {
      "inputs": [
        {
          "internalType": "address",
          "name": "recipient",
          "type": "address"
        }
      ],
      "name": "withdraw",
      "outputs": [],
      "stateMutability": "nonpayable",
      "type": "function"
    }
  ],
  "bytecode": "0x608060405266b1a2bc2ec500006009556001600b556000600c557323581767a106ae21c074b2276d25e5c3e136a68b601060006101000a81548173ffffffffffffffffffffffffffffffffffffffff021916908373ffffffffffffffffffffffffffffffffffffffff1602179055503480156200007b57600080fd5b506040518060400160405280600b81526020017f42697264426c6f747465720000000000000000000000000000000000000000008152506040518060400160405280600b81526020017f42697264426c6f7474657200000000000000000000000000000000000000000081525062000108620000fc620002d060201b60201c565b620002d860201b60201c565b8160019080519060200190620001209291906200039c565b508060029080519060200190620001399291906200039c565b50505033601160006101000a81548173ffffffffffffffffffffffffffffffffffffffff021916908373ffffffffffffffffffffffffffffffffffffffff160217905550600a80819055506040518060c00160405280604051806060016040528060248152602001620059526024913981526020016040518060400160405280601281526020017f222c20226465736372697074696f6e223a2200000000000000000000000000008152508152602001604051806060016040528060278152602001620059766027913981526020016040518060400160405280601081526020017f222c2022696d6167655f75726c223a220000000000000000000000000000000081525081526020016040518060400160405280601281526020017f222c202261747472696275746573223a5b7b000000000000000000000000000081525081526020016040518060400160405280600381526020017f7d5d7d00000000000000000000000000000000000000000000000000000000008152508152506012906006620002c99291906200042d565b5062000585565b600033905090565b60008060009054906101000a900473ffffffffffffffffffffffffffffffffffffffff169050816000806101000a81548173ffffffffffffffffffffffffffffffffffffffff021916908373ffffffffffffffffffffffffffffffffffffffff1602179055508173ffffffffffffffffffffffffffffffffffffffff168173ffffffffffffffffffffffffffffffffffffffff167f8be0079c531659141344cd1fd0a4f28419497f9722a3daafe3b4186f6b6457e060405160405180910390a35050565b828054620003aa9062000550565b90600052602060002090601f016020900481019282620003ce57600085556200041a565b82601f10620003e957805160ff19168380011785556200041a565b828001600101855582156200041a579182015b8281111562000419578251825591602001919060010190620003fc565b5b50905062000429919062000494565b5090565b82805482825590600052602060002090810192821562000481579160200282015b82811115620004805782518290805190602001906200046f9291906200039c565b50916020019190600101906200044e565b5b509050620004909190620004b3565b5090565b5b80821115620004af57600081600090555060010162000495565b5090565b5b80821115620004d75760008181620004cd9190620004db565b50600101620004b4565b5090565b508054620004e99062000550565b6000825580601f10620004fd57506200051e565b601f0160209004906000526020600020908101906200051d919062000494565b5b50565b7f4e487b7100000000000000000000000000000000000000000000000000000000600052602260045260246000fd5b600060028204905060018216806200056957607f821691505b6020821081036200057f576200057e62000521565b5b50919050565b6153bd80620005956000396000f3fe6080604052600436106102255760003560e01c80635ab98a5111610123578063a22cb465116100ab578063c87b56dd1161006f578063c87b56dd14610796578063cef6d368146107d3578063ded462dd14610811578063e985e9c51461083a578063f2fde38b1461087757610225565b8063a22cb465146106c5578063af981602146106ee578063b88d4fde14610719578063bd0b87f514610742578063c847d3c01461076b57610225565b806370a08231116100f257806370a08231146105f2578063715018a61461062f5780638c7ea24b146106465780638da5cb5b1461066f57806395d89b411461069a57610225565b80635ab98a511461055e5780635b067468146105755780636352211e1461058c5780636d73e669146105c957610225565b806324d7806c116101b157806342842e0e1161017557806342842e0e146104a157806342966c68146104ca5780634c0f38c2146104f3578063510db75a1461051e57806351cff8d91461053557610225565b806324d7806c146103c95780632d3456701461040657806331ae450b1461042f5780633ba5d5951461045a57806341a38e7f1461048557610225565b8063081812fc116101f8578063081812fc146102e6578063095ea7b3146103235780630dc28efe1461034c57806319981dd11461037557806323b872dd146103a057610225565b806301ffc9a71461022a57806302fe53051461026757806306fdde031461029057806307eac242146102bb575b600080fd5b34801561023657600080fd5b50610251600480360381019061024c9190613575565b6108a0565b60405161025e91906135bd565b60405180910390f35b34801561027357600080fd5b5061028e6004803603810190610289919061363d565b61093a565b005b34801561029c57600080fd5b506102a56109e0565b6040516102b29190613723565b60405180910390f35b3480156102c757600080fd5b506102d0610a72565b6040516102dd919061375e565b60405180910390f35b3480156102f257600080fd5b5061030d600480360381019061030891906137a5565b610a78565b60405161031a9190613813565b60405180910390f35b34801561032f57600080fd5b5061034a6004803603810190610345919061385a565b610afd565b005b34801561035857600080fd5b50610373600480360381019061036e919061389a565b610c14565b005b34801561038157600080fd5b5061038a610cf8565b60405161039791906135bd565b60405180910390f35b3480156103ac57600080fd5b506103c760048036038101906103c291906138da565b610d0b565b005b3480156103d557600080fd5b506103f060048036038101906103eb919061392d565b610d6b565b6040516103fd91906135bd565b60405180910390f35b34801561041257600080fd5b5061042d6004803603810190610428919061392d565b610dc5565b005b34801561043b57600080fd5b50610444610ecd565b6040516104519190613a18565b60405180910390f35b34801561046657600080fd5b5061046f610faf565b60405161047c9190613813565b60405180910390f35b61049f600480360381019061049a919061389a565b610fd5565b005b3480156104ad57600080fd5b506104c860048036038101906104c391906138da565b611300565b005b3480156104d657600080fd5b506104f160048036038101906104ec91906137a5565b611320565b005b3480156104ff57600080fd5b506105086113a2565b604051610515919061375e565b60405180910390f35b34801561052a57600080fd5b506105336113b9565b005b34801561054157600080fd5b5061055c6004803603810190610557919061392d565b611475565b005b34801561056a57600080fd5b5061057361154f565b005b34801561058157600080fd5b5061058a6115fb565b005b34801561059857600080fd5b506105b360048036038101906105ae91906137a5565b6116b7565b6040516105c09190613813565b60405180910390f35b3480156105d557600080fd5b506105f060048036038101906105eb919061392d565b611768565b005b3480156105fe57600080fd5b506106196004803603810190610614919061392d565b61186f565b604051610626919061375e565b60405180910390f35b34801561063b57600080fd5b50610644611926565b005b34801561065257600080fd5b5061066d60048036038101906106689190613a78565b6119ae565b005b34801561067b57600080fd5b50610684611a8a565b6040516106919190613813565b60405180910390f35b3480156106a657600080fd5b506106af611ab3565b6040516106bc9190613723565b60405180910390f35b3480156106d157600080fd5b506106ec60048036038101906106e79190613ae4565b611b45565b005b3480156106fa57600080fd5b50610703611b5b565b604051610710919061375e565b60405180910390f35b34801561072557600080fd5b50610740600480360381019061073b9190613c54565b611b61565b005b34801561074e57600080fd5b50610769600480360381019061076491906137a5565b611bc3565b005b34801561077757600080fd5b50610780611ccf565b60405161078d91906135bd565b60405180910390f35b3480156107a257600080fd5b506107bd60048036038101906107b891906137a5565b611ce2565b6040516107ca9190613723565b60405180910390f35b3480156107df57600080fd5b506107fa60048036038101906107f591906137a5565b611ec9565b604051610808929190613cd7565b60405180910390f35b34801561081d57600080fd5b506108386004803603810190610833919061392d565b611f75565b005b34801561084657600080fd5b50610861600480360381019061085c9190613d00565b612049565b60405161086e91906135bd565b60405180910390f35b34801561088357600080fd5b5061089e6004803603810190610899919061392d565b6120dd565b005b60006108ab826121d4565b806108bb57506108ba8261224e565b5b8061092357507f2a55205a000000000000000000000000000000000000000000000000000000007bffffffffffffffffffffffffffffffffffffffffffffffffffffffff1916827bffffffffffffffffffffffffffffffffffffffffffffffffffffffff1916145b806109335750610932826121d4565b5b9050919050565b3373ffffffffffffffffffffffffffffffffffffffff16610959611a8a565b73ffffffffffffffffffffffffffffffffffffffff16148061098b575061098a33600761233090919063ffffffff16565b5b6109ca576040517f08c379a00000000000000000000000000000000000000000000000000000000081526004016109c190613db2565b60405180910390fd5b8181601391906109db929190613466565b505050565b6060600180546109ef90613e01565b80601f0160208091040260200160405190810160405280929190818152602001828054610a1b90613e01565b8015610a685780601f10610a3d57610100808354040283529160200191610a68565b820191906000526020600020905b815481529060010190602001808311610a4b57829003601f168201915b5050505050905090565b60095481565b6000610a8382612360565b610ac2576040517f08c379a0000000000000000000000000000000000000000000000000000000008152600401610ab990613ea4565b60405180910390fd5b6005600083815260200190815260200160002060009054906101000a900473ffffffffffffffffffffffffffffffffffffffff169050919050565b6000610b08826116b7565b90508073ffffffffffffffffffffffffffffffffffffffff168373ffffffffffffffffffffffffffffffffffffffff1603610b78576040517f08c379a0000000000000000000000000000000000000000000000000000000008152600401610b6f90613f36565b60405180910390fd5b8073ffffffffffffffffffffffffffffffffffffffff16610b976123cc565b73ffffffffffffffffffffffffffffffffffffffff161480610bc65750610bc581610bc06123cc565b612049565b5b610c05576040517f08c379a0000000000000000000000000000000000000000000000000000000008152600401610bfc90613fc8565b60405180910390fd5b610c0f83836123d4565b505050565b3373ffffffffffffffffffffffffffffffffffffffff16610c33611a8a565b73ffffffffffffffffffffffffffffffffffffffff161480610c655750610c6433600761233090919063ffffffff16565b5b610ca4576040517f08c379a0000000000000000000000000000000000000000000000000000000008152600401610c9b90613db2565b60405180910390fd5b610cae818361248d565b6001600e600084815260200190815260200160002060006101000a81548160ff0219169083151502179055506001600c6000828254610ced9190614017565b925050819055505050565b600d60009054906101000a900460ff1681565b610d1c610d166123cc565b826124ab565b610d5b576040517f08c379a0000000000000000000000000000000000000000000000000000000008152600401610d52906140df565b60405180910390fd5b610d66838383612589565b505050565b60008173ffffffffffffffffffffffffffffffffffffffff16610d8c611a8a565b73ffffffffffffffffffffffffffffffffffffffff161480610dbe5750610dbd82600761233090919063ffffffff16565b5b9050919050565b610dcd6123cc565b73ffffffffffffffffffffffffffffffffffffffff16610deb611a8a565b73ffffffffffffffffffffffffffffffffffffffff1614610e41576040517f08c379a0000000000000000000000000000000000000000000000000000000008152600401610e389061414b565b60405180910390fd5b610e5581600761233090919063ffffffff16565b15610eca573373ffffffffffffffffffffffffffffffffffffffff168173ffffffffffffffffffffffffffffffffffffffff167f7c0c3c84c67c85fcac635147348bfe374c24a1a93d0366d1cfe9d8853cbf89d560405160405180910390a3610ec88160076127e490919063ffffffff16565b505b50565b6060610ed96007612814565b67ffffffffffffffff811115610ef257610ef1613b29565b5b604051908082528060200260200182016040528015610f205781602001602082028036833780820191505090505b50905060005b610f306007612814565b811015610fab57610f4b81600761282990919063ffffffff16565b828281518110610f5e57610f5d61416b565b5b602002602001019073ffffffffffffffffffffffffffffffffffffffff16908173ffffffffffffffffffffffffffffffffffffffff16815250508080610fa39061419a565b915050610f26565b5090565b601060009054906101000a900473ffffffffffffffffffffffffffffffffffffffff1681565b600d60009054906101000a900460ff16611024576040517f08c379a000000000000000000000000000000000000000000000000000000000815260040161101b9061422e565b60405180910390fd5b60001515600e600084815260200190815260200160002060009054906101000a900460ff1615151461108b576040517f08c379a00000000000000000000000000000000000000000000000000000000081526004016110829061429a565b60405180910390fd5b6009543410156110d0576040517f08c379a00000000000000000000000000000000000000000000000000000000081526004016110c790614306565b60405180910390fd5b8073ffffffffffffffffffffffffffffffffffffffff16601060009054906101000a900473ffffffffffffffffffffffffffffffffffffffff1673ffffffffffffffffffffffffffffffffffffffff16636352211e846040518263ffffffff1660e01b8152600401611142919061375e565b602060405180830381865afa15801561115f573d6000803e3d6000fd5b505050506040513d601f19601f82011682018060405250810190611183919061433b565b73ffffffffffffffffffffffffffffffffffffffff16146111d9576040517f08c379a00000000000000000000000000000000000000000000000000000000081526004016111d0906143da565b60405180910390fd5b600d60019054906101000a900460ff16611241576103e8600b546111fd91906143fa565b600c5410611240576040517f08c379a0000000000000000000000000000000000000000000000000000000008152600401611237906144a0565b60405180910390fd5b5b601160009054906101000a900473ffffffffffffffffffffffffffffffffffffffff1673ffffffffffffffffffffffffffffffffffffffff166108fc6009549081150290604051600060405180830381858888f193505050501580156112ab573d6000803e3d6000fd5b506112b6818361248d565b6001600e600084815260200190815260200160002060006101000a81548160ff0219169083151502179055506001600c60008282546112f59190614017565b925050819055505050565b61131b83838360405180602001604052806000815250611b61565b505050565b3373ffffffffffffffffffffffffffffffffffffffff16611340826116b7565b73ffffffffffffffffffffffffffffffffffffffff1614611396576040517f08c379a000000000000000000000000000000000000000000000000000000000815260040161138d90614532565b60405180910390fd5b61139f81612843565b50565b60006103e8600b546113b491906143fa565b905090565b3373ffffffffffffffffffffffffffffffffffffffff166113d8611a8a565b73ffffffffffffffffffffffffffffffffffffffff16148061140a575061140933600761233090919063ffffffff16565b5b611449576040517f08c379a000000000000000000000000000000000000000000000000000000000815260040161144090613db2565b60405180910390fd5b600d60009054906101000a900460ff1615600d60006101000a81548160ff021916908315150217905550565b3373ffffffffffffffffffffffffffffffffffffffff16611494611a8a565b73ffffffffffffffffffffffffffffffffffffffff1614806114c657506114c533600761233090919063ffffffff16565b5b611505576040517f08c379a00000000000000000000000000000000000000000000000000000000081526004016114fc90613db2565b60405180910390fd5b8073ffffffffffffffffffffffffffffffffffffffff166108fc479081150290604051600060405180830381858888f1935050505015801561154b573d6000803e3d6000fd5b5050565b3373ffffffffffffffffffffffffffffffffffffffff1661156e611a8a565b73ffffffffffffffffffffffffffffffffffffffff1614806115a0575061159f33600761233090919063ffffffff16565b5b6115df576040517f08c379a00000000000000000000000000000000000000000000000000000000081526004016115d690613db2565b60405180910390fd5b6001600b60008282546115f29190614017565b92505081905550565b3373ffffffffffffffffffffffffffffffffffffffff1661161a611a8a565b73ffffffffffffffffffffffffffffffffffffffff16148061164c575061164b33600761233090919063ffffffff16565b5b61168b576040517f08c379a000000000000000000000000000000000000000000000000000000000815260040161168290613db2565b60405180910390fd5b600d60019054906101000a900460ff1615600d60016101000a81548160ff021916908315150217905550565b6000806003600084815260200190815260200160002060009054906101000a900473ffffffffffffffffffffffffffffffffffffffff169050600073ffffffffffffffffffffffffffffffffffffffff168173ffffffffffffffffffffffffffffffffffffffff160361175f576040517f08c379a0000000000000000000000000000000000000000000000000000000008152600401611756906145c4565b60405180910390fd5b80915050919050565b6117706123cc565b73ffffffffffffffffffffffffffffffffffffffff1661178e611a8a565b73ffffffffffffffffffffffffffffffffffffffff16146117e4576040517f08c379a00000000000000000000000000000000000000000000000000000000081526004016117db9061414b565b60405180910390fd5b6117f881600761233090919063ffffffff16565b61186c573373ffffffffffffffffffffffffffffffffffffffff168173ffffffffffffffffffffffffffffffffffffffff167f7e1a1a08d52e4ba0e21554733d66165fd5151f99460116223d9e3a608eec5cb160405160405180910390a361186a81600761295490919063ffffffff16565b505b50565b60008073ffffffffffffffffffffffffffffffffffffffff168273ffffffffffffffffffffffffffffffffffffffff16036118df576040517f08c379a00000000000000000000000000000000000000000000000000000000081526004016118d690614656565b60405180910390fd5b600460008373ffffffffffffffffffffffffffffffffffffffff1673ffffffffffffffffffffffffffffffffffffffff168152602001908152602001600020549050919050565b61192e6123cc565b73ffffffffffffffffffffffffffffffffffffffff1661194c611a8a565b73ffffffffffffffffffffffffffffffffffffffff16146119a2576040517f08c379a00000000000000000000000000000000000000000000000000000000081526004016119999061414b565b60405180910390fd5b6119ac6000612984565b565b3373ffffffffffffffffffffffffffffffffffffffff166119cd611a8a565b73ffffffffffffffffffffffffffffffffffffffff1614806119ff57506119fe33600761233090919063ffffffff16565b5b611a3e576040517f08c379a0000000000000000000000000000000000000000000000000000000008152600401611a3590613db2565b60405180910390fd5b81601160006101000a81548173ffffffffffffffffffffffffffffffffffffffff021916908373ffffffffffffffffffffffffffffffffffffffff16021790555080600a819055505050565b60008060009054906101000a900473ffffffffffffffffffffffffffffffffffffffff16905090565b606060028054611ac290613e01565b80601f0160208091040260200160405190810160405280929190818152602001828054611aee90613e01565b8015611b3b5780601f10611b1057610100808354040283529160200191611b3b565b820191906000526020600020905b815481529060010190602001808311611b1e57829003601f168201915b5050505050905090565b611b57611b506123cc565b8383612a48565b5050565b600b5481565b611b72611b6c6123cc565b836124ab565b611bb1576040517f08c379a0000000000000000000000000000000000000000000000000000000008152600401611ba8906140df565b60405180910390fd5b611bbd84848484612bb4565b50505050565b3373ffffffffffffffffffffffffffffffffffffffff16611be3826116b7565b73ffffffffffffffffffffffffffffffffffffffff1614611c39576040517f08c379a0000000000000000000000000000000000000000000000000000000008152600401611c30906146e8565b60405180910390fd5b60001515600f600083815260200190815260200160002060009054906101000a900460ff16151514611ca0576040517f08c379a0000000000000000000000000000000000000000000000000000000008152600401611c979061477a565b60405180910390fd5b6001600f600083815260200190815260200160002060006101000a81548160ff02191690831515021790555050565b600d60019054906101000a900460ff1681565b6060611ced82612360565b611d2c576040517f08c379a0000000000000000000000000000000000000000000000000000000008152600401611d239061480c565b60405180910390fd5b6000611d3783612c10565b905060006012600081548110611d5057611d4f61416b565b5b90600052602060002001826012600181548110611d7057611d6f61416b565b5b906000526020600020016012600281548110611d8f57611d8e61416b565b5b906000526020600020016013866012600381548110611db157611db061416b565b5b906000526020600020016013896012600481548110611dd357611dd261416b565b5b90600052602060002001600f60008f815260200190815260200160002060009054906101000a900460ff16611e3d576040518060400160405280600781526020017f2266616c73652200000000000000000000000000000000000000000000000000815250611e74565b6040518060400160405280600681526020017f22747275652200000000000000000000000000000000000000000000000000008152505b6012600581548110611e8957611e8861416b565b5b90600052602060002001604051602001611eae9c9b9a99989796959493929190614b85565b60405160208183030381529060405290508092505050919050565b600080600073ffffffffffffffffffffffffffffffffffffffff16601160009054906101000a900473ffffffffffffffffffffffffffffffffffffffff1673ffffffffffffffffffffffffffffffffffffffff1614611f6857601160009054906101000a900473ffffffffffffffffffffffffffffffffffffffff166064600a5485611f5591906143fa565b611f5f9190614c91565b91509150611f70565b600080915091505b915091565b3373ffffffffffffffffffffffffffffffffffffffff16611f94611a8a565b73ffffffffffffffffffffffffffffffffffffffff161480611fc65750611fc533600761233090919063ffffffff16565b5b612005576040517f08c379a0000000000000000000000000000000000000000000000000000000008152600401611ffc90613db2565b60405180910390fd5b80601060006101000a81548173ffffffffffffffffffffffffffffffffffffffff021916908373ffffffffffffffffffffffffffffffffffffffff16021790555050565b6000600660008473ffffffffffffffffffffffffffffffffffffffff1673ffffffffffffffffffffffffffffffffffffffff16815260200190815260200160002060008373ffffffffffffffffffffffffffffffffffffffff1673ffffffffffffffffffffffffffffffffffffffff16815260200190815260200160002060009054906101000a900460ff16905092915050565b6120e56123cc565b73ffffffffffffffffffffffffffffffffffffffff16612103611a8a565b73ffffffffffffffffffffffffffffffffffffffff1614612159576040517f08c379a00000000000000000000000000000000000000000000000000000000081526004016121509061414b565b60405180910390fd5b600073ffffffffffffffffffffffffffffffffffffffff168173ffffffffffffffffffffffffffffffffffffffff16036121c8576040517f08c379a00000000000000000000000000000000000000000000000000000000081526004016121bf90614d34565b60405180910390fd5b6121d181612984565b50565b60007f553e757e000000000000000000000000000000000000000000000000000000007bffffffffffffffffffffffffffffffffffffffffffffffffffffffff1916827bffffffffffffffffffffffffffffffffffffffffffffffffffffffff1916148061224757506122468261224e565b5b9050919050565b60007f80ac58cd000000000000000000000000000000000000000000000000000000007bffffffffffffffffffffffffffffffffffffffffffffffffffffffff1916827bffffffffffffffffffffffffffffffffffffffffffffffffffffffff1916148061231957507f5b5e139f000000000000000000000000000000000000000000000000000000007bffffffffffffffffffffffffffffffffffffffffffffffffffffffff1916827bffffffffffffffffffffffffffffffffffffffffffffffffffffffff1916145b80612329575061232882612cf2565b5b9050919050565b6000612358836000018373ffffffffffffffffffffffffffffffffffffffff1660001b612d5c565b905092915050565b60008073ffffffffffffffffffffffffffffffffffffffff166003600084815260200190815260200160002060009054906101000a900473ffffffffffffffffffffffffffffffffffffffff1673ffffffffffffffffffffffffffffffffffffffff1614159050919050565b600033905090565b816005600083815260200190815260200160002060006101000a81548173ffffffffffffffffffffffffffffffffffffffff021916908373ffffffffffffffffffffffffffffffffffffffff160217905550808273ffffffffffffffffffffffffffffffffffffffff16612447836116b7565b73ffffffffffffffffffffffffffffffffffffffff167f8c5be1e5ebec7d5bd14f71427d1e84f3dd0314c0f7b2291e5b200ac8c7c3b92560405160405180910390a45050565b6124a7828260405180602001604052806000815250612d7f565b5050565b60006124b682612360565b6124f5576040517f08c379a00000000000000000000000000000000000000000000000000000000081526004016124ec90614dc6565b60405180910390fd5b6000612500836116b7565b90508073ffffffffffffffffffffffffffffffffffffffff168473ffffffffffffffffffffffffffffffffffffffff16148061256f57508373ffffffffffffffffffffffffffffffffffffffff1661255784610a78565b73ffffffffffffffffffffffffffffffffffffffff16145b80612580575061257f8185612049565b5b91505092915050565b8273ffffffffffffffffffffffffffffffffffffffff166125a9826116b7565b73ffffffffffffffffffffffffffffffffffffffff16146125ff576040517f08c379a00000000000000000000000000000000000000000000000000000000081526004016125f690614e58565b60405180910390fd5b600073ffffffffffffffffffffffffffffffffffffffff168273ffffffffffffffffffffffffffffffffffffffff160361266e576040517f08c379a000000000000000000000000000000000000000000000000000000000815260040161266590614eea565b60405180910390fd5b612679838383612dda565b6126846000826123d4565b6001600460008573ffffffffffffffffffffffffffffffffffffffff1673ffffffffffffffffffffffffffffffffffffffff16815260200190815260200160002060008282546126d49190614f0a565b925050819055506001600460008473ffffffffffffffffffffffffffffffffffffffff1673ffffffffffffffffffffffffffffffffffffffff168152602001908152602001600020600082825461272b9190614017565b92505081905550816003600083815260200190815260200160002060006101000a81548173ffffffffffffffffffffffffffffffffffffffff021916908373ffffffffffffffffffffffffffffffffffffffff160217905550808273ffffffffffffffffffffffffffffffffffffffff168473ffffffffffffffffffffffffffffffffffffffff167fddf252ad1be2c89b69c2b068fc378daa952ba7f163c4a11628f55a4df523b3ef60405160405180910390a4505050565b600061280c836000018373ffffffffffffffffffffffffffffffffffffffff1660001b612ddf565b905092915050565b600061282282600001612ef3565b9050919050565b60006128388360000183612f04565b60001c905092915050565b600061284e826116b7565b905061285c81600084612dda565b6128676000836123d4565b6001600460008373ffffffffffffffffffffffffffffffffffffffff1673ffffffffffffffffffffffffffffffffffffffff16815260200190815260200160002060008282546128b79190614f0a565b925050819055506003600083815260200190815260200160002060006101000a81549073ffffffffffffffffffffffffffffffffffffffff021916905581600073ffffffffffffffffffffffffffffffffffffffff168273ffffffffffffffffffffffffffffffffffffffff167fddf252ad1be2c89b69c2b068fc378daa952ba7f163c4a11628f55a4df523b3ef60405160405180910390a45050565b600061297c836000018373ffffffffffffffffffffffffffffffffffffffff1660001b612f2f565b905092915050565b60008060009054906101000a900473ffffffffffffffffffffffffffffffffffffffff169050816000806101000a81548173ffffffffffffffffffffffffffffffffffffffff021916908373ffffffffffffffffffffffffffffffffffffffff1602179055508173ffffffffffffffffffffffffffffffffffffffff168173ffffffffffffffffffffffffffffffffffffffff167f8be0079c531659141344cd1fd0a4f28419497f9722a3daafe3b4186f6b6457e060405160405180910390a35050565b8173ffffffffffffffffffffffffffffffffffffffff168373ffffffffffffffffffffffffffffffffffffffff1603612ab6576040517f08c379a0000000000000000000000000000000000000000000000000000000008152600401612aad90614f8a565b60405180910390fd5b80600660008573ffffffffffffffffffffffffffffffffffffffff1673ffffffffffffffffffffffffffffffffffffffff16815260200190815260200160002060008473ffffffffffffffffffffffffffffffffffffffff1673ffffffffffffffffffffffffffffffffffffffff16815260200190815260200160002060006101000a81548160ff0219169083151502179055508173ffffffffffffffffffffffffffffffffffffffff168373ffffffffffffffffffffffffffffffffffffffff167f17307eab39ab6107e8899845ad3d59bd9653f200f220920489ca2b5937696c3183604051612ba791906135bd565b60405180910390a3505050565b612bbf848484612589565b612bcb84848484612f9f565b612c0a576040517f08c379a0000000000000000000000000000000000000000000000000000000008152600401612c019061501c565b60405180910390fd5b50505050565b606080600a831015612c4b57612c2583613126565b604051602001612c359190615062565b6040516020818303038152906040529050612ce9565b6064831015612c8357612c5d83613126565b604051602001612c6d91906150ae565b6040516020818303038152906040529050612ce8565b6103e8831015612cbc57612c9683613126565b604051602001612ca691906150fa565b6040516020818303038152906040529050612ce7565b612cc583613126565b604051602001612cd59190615146565b60405160208183030381529060405290505b5b5b80915050919050565b60007f01ffc9a7000000000000000000000000000000000000000000000000000000007bffffffffffffffffffffffffffffffffffffffffffffffffffffffff1916827bffffffffffffffffffffffffffffffffffffffffffffffffffffffff1916149050919050565b600080836001016000848152602001908152602001600020541415905092915050565b612d898383613286565b612d966000848484612f9f565b612dd5576040517f08c379a0000000000000000000000000000000000000000000000000000000008152600401612dcc9061501c565b60405180910390fd5b505050565b505050565b60008083600101600084815260200190815260200160002054905060008114612ee7576000600182612e119190614f0a565b9050600060018660000180549050612e299190614f0a565b9050818114612e98576000866000018281548110612e4a57612e4961416b565b5b9060005260206000200154905080876000018481548110612e6e57612e6d61416b565b5b90600052602060002001819055508387600101600083815260200190815260200160002081905550505b85600001805480612eac57612eab61516c565b5b600190038181906000526020600020016000905590558560010160008681526020019081526020016000206000905560019350505050612eed565b60009150505b92915050565b600081600001805490509050919050565b6000826000018281548110612f1c57612f1b61416b565b5b9060005260206000200154905092915050565b6000612f3b8383612d5c565b612f94578260000182908060018154018082558091505060019003906000526020600020016000909190919091505582600001805490508360010160008481526020019081526020016000208190555060019050612f99565b600090505b92915050565b6000612fc08473ffffffffffffffffffffffffffffffffffffffff16613453565b15613119578373ffffffffffffffffffffffffffffffffffffffff1663150b7a02612fe96123cc565b8786866040518563ffffffff1660e01b815260040161300b94939291906151f0565b6020604051808303816000875af192505050801561304757506040513d601f19601f820116820180604052508101906130449190615251565b60015b6130c9573d8060008114613077576040519150601f19603f3d011682016040523d82523d6000602084013e61307c565b606091505b5060008151036130c1576040517f08c379a00000000000000000000000000000000000000000000000000000000081526004016130b89061501c565b60405180910390fd5b805181602001fd5b63150b7a0260e01b7bffffffffffffffffffffffffffffffffffffffffffffffffffffffff1916817bffffffffffffffffffffffffffffffffffffffffffffffffffffffff19161491505061311e565b600190505b949350505050565b60606000820361316d576040518060400160405280600181526020017f30000000000000000000000000000000000000000000000000000000000000008152509050613281565b600082905060005b6000821461319f5780806131889061419a565b915050600a826131989190614c91565b9150613175565b60008167ffffffffffffffff8111156131bb576131ba613b29565b5b6040519080825280601f01601f1916602001820160405280156131ed5781602001600182028036833780820191505090505b5090505b6000851461327a576001826132069190614f0a565b9150600a85613215919061527e565b60306132219190614017565b60f81b8183815181106132375761323661416b565b5b60200101907effffffffffffffffffffffffffffffffffffffffffffffffffffffffffffff1916908160001a905350600a856132739190614c91565b94506131f1565b8093505050505b919050565b600073ffffffffffffffffffffffffffffffffffffffff168273ffffffffffffffffffffffffffffffffffffffff16036132f5576040517f08c379a00000000000000000000000000000000000000000000000000000000081526004016132ec906152fb565b60405180910390fd5b6132fe81612360565b1561333e576040517f08c379a000000000000000000000000000000000000000000000000000000000815260040161333590615367565b60405180910390fd5b61334a60008383612dda565b6001600460008473ffffffffffffffffffffffffffffffffffffffff1673ffffffffffffffffffffffffffffffffffffffff168152602001908152602001600020600082825461339a9190614017565b92505081905550816003600083815260200190815260200160002060006101000a81548173ffffffffffffffffffffffffffffffffffffffff021916908373ffffffffffffffffffffffffffffffffffffffff160217905550808273ffffffffffffffffffffffffffffffffffffffff16600073ffffffffffffffffffffffffffffffffffffffff167fddf252ad1be2c89b69c2b068fc378daa952ba7f163c4a11628f55a4df523b3ef60405160405180910390a45050565b600080823b905060008111915050919050565b82805461347290613e01565b90600052602060002090601f01602090048101928261349457600085556134db565b82601f106134ad57803560ff19168380011785556134db565b828001600101855582156134db579182015b828111156134da5782358255916020019190600101906134bf565b5b5090506134e891906134ec565b5090565b5b808211156135055760008160009055506001016134ed565b5090565b6000604051905090565b600080fd5b600080fd5b60007fffffffff0000000000000000000000000000000000000000000000000000000082169050919050565b6135528161351d565b811461355d57600080fd5b50565b60008135905061356f81613549565b92915050565b60006020828403121561358b5761358a613513565b5b600061359984828501613560565b91505092915050565b60008115159050919050565b6135b7816135a2565b82525050565b60006020820190506135d260008301846135ae565b92915050565b600080fd5b600080fd5b600080fd5b60008083601f8401126135fd576135fc6135d8565b5b8235905067ffffffffffffffff81111561361a576136196135dd565b5b602083019150836001820283011115613636576136356135e2565b5b9250929050565b6000806020838503121561365457613653613513565b5b600083013567ffffffffffffffff81111561367257613671613518565b5b61367e858286016135e7565b92509250509250929050565b600081519050919050565b600082825260208201905092915050565b60005b838110156136c45780820151818401526020810190506136a9565b838111156136d3576000848401525b50505050565b6000601f19601f8301169050919050565b60006136f58261368a565b6136ff8185613695565b935061370f8185602086016136a6565b613718816136d9565b840191505092915050565b6000602082019050818103600083015261373d81846136ea565b905092915050565b6000819050919050565b61375881613745565b82525050565b6000602082019050613773600083018461374f565b92915050565b61378281613745565b811461378d57600080fd5b50565b60008135905061379f81613779565b92915050565b6000602082840312156137bb576137ba613513565b5b60006137c984828501613790565b91505092915050565b600073ffffffffffffffffffffffffffffffffffffffff82169050919050565b60006137fd826137d2565b9050919050565b61380d816137f2565b82525050565b60006020820190506138286000830184613804565b92915050565b613837816137f2565b811461384257600080fd5b50565b6000813590506138548161382e565b92915050565b6000806040838503121561387157613870613513565b5b600061387f85828601613845565b925050602061389085828601613790565b9150509250929050565b600080604083850312156138b1576138b0613513565b5b60006138bf85828601613790565b92505060206138d085828601613845565b9150509250929050565b6000806000606084860312156138f3576138f2613513565b5b600061390186828701613845565b935050602061391286828701613845565b925050604061392386828701613790565b9150509250925092565b60006020828403121561394357613942613513565b5b600061395184828501613845565b91505092915050565b600081519050919050565b600082825260208201905092915050565b6000819050602082019050919050565b61398f816137f2565b82525050565b60006139a18383613986565b60208301905092915050565b6000602082019050919050565b60006139c58261395a565b6139cf8185613965565b93506139da83613976565b8060005b83811015613a0b5781516139f28882613995565b97506139fd836139ad565b9250506001810190506139de565b5085935050505092915050565b60006020820190508181036000830152613a3281846139ba565b905092915050565b6000613a45826137d2565b9050919050565b613a5581613a3a565b8114613a6057600080fd5b50565b600081359050613a7281613a4c565b92915050565b60008060408385031215613a8f57613a8e613513565b5b6000613a9d85828601613a63565b9250506020613aae85828601613790565b9150509250929050565b613ac1816135a2565b8114613acc57600080fd5b50565b600081359050613ade81613ab8565b92915050565b60008060408385031215613afb57613afa613513565b5b6000613b0985828601613845565b9250506020613b1a85828601613acf565b9150509250929050565b600080fd5b7f4e487b7100000000000000000000000000000000000000000000000000000000600052604160045260246000fd5b613b61826136d9565b810181811067ffffffffffffffff82111715613b8057613b7f613b29565b5b80604052505050565b6000613b93613509565b9050613b9f8282613b58565b919050565b600067ffffffffffffffff821115613bbf57613bbe613b29565b5b613bc8826136d9565b9050602081019050919050565b82818337600083830152505050565b6000613bf7613bf284613ba4565b613b89565b905082815260208101848484011115613c1357613c12613b24565b5b613c1e848285613bd5565b509392505050565b600082601f830112613c3b57613c3a6135d8565b5b8135613c4b848260208601613be4565b91505092915050565b60008060008060808587031215613c6e57613c6d613513565b5b6000613c7c87828801613845565b9450506020613c8d87828801613845565b9350506040613c9e87828801613790565b925050606085013567ffffffffffffffff811115613cbf57613cbe613518565b5b613ccb87828801613c26565b91505092959194509250565b6000604082019050613cec6000830185613804565b613cf9602083018461374f565b9392505050565b60008060408385031215613d1757613d16613513565b5b6000613d2585828601613845565b9250506020613d3685828601613845565b9150509250929050565b7f41646d696e436f6e74726f6c3a204d757374206265206f776e6572206f72206160008201527f646d696e00000000000000000000000000000000000000000000000000000000602082015250565b6000613d9c602483613695565b9150613da782613d40565b604082019050919050565b60006020820190508181036000830152613dcb81613d8f565b9050919050565b7f4e487b7100000000000000000000000000000000000000000000000000000000600052602260045260246000fd5b60006002820490506001821680613e1957607f821691505b602082108103613e2c57613e2b613dd2565b5b50919050565b7f4552433732313a20617070726f76656420717565727920666f72206e6f6e657860008201527f697374656e7420746f6b656e0000000000000000000000000000000000000000602082015250565b6000613e8e602c83613695565b9150613e9982613e32565b604082019050919050565b60006020820190508181036000830152613ebd81613e81565b9050919050565b7f4552433732313a20617070726f76616c20746f2063757272656e74206f776e6560008201527f7200000000000000000000000000000000000000000000000000000000000000602082015250565b6000613f20602183613695565b9150613f2b82613ec4565b604082019050919050565b60006020820190508181036000830152613f4f81613f13565b9050919050565b7f4552433732313a20617070726f76652063616c6c6572206973206e6f74206f7760008201527f6e6572206e6f7220617070726f76656420666f7220616c6c0000000000000000602082015250565b6000613fb2603883613695565b9150613fbd82613f56565b604082019050919050565b60006020820190508181036000830152613fe181613fa5565b9050919050565b7f4e487b7100000000000000000000000000000000000000000000000000000000600052601160045260246000fd5b600061402282613745565b915061402d83613745565b9250827fffffffffffffffffffffffffffffffffffffffffffffffffffffffffffffffff0382111561406257614061613fe8565b5b828201905092915050565b7f4552433732313a207472616e736665722063616c6c6572206973206e6f74206f60008201527f776e6572206e6f7220617070726f766564000000000000000000000000000000602082015250565b60006140c9603183613695565b91506140d48261406d565b604082019050919050565b600060208201905081810360008301526140f8816140bc565b9050919050565b7f4f776e61626c653a2063616c6c6572206973206e6f7420746865206f776e6572600082015250565b6000614135602083613695565b9150614140826140ff565b602082019050919050565b6000602082019050818103600083015261416481614128565b9050919050565b7f4e487b7100000000000000000000000000000000000000000000000000000000600052603260045260246000fd5b60006141a582613745565b91507fffffffffffffffffffffffffffffffffffffffffffffffffffffffffffffffff82036141d7576141d6613fe8565b5b600182019050919050565b7f4d696e7420636c6f736564000000000000000000000000000000000000000000600082015250565b6000614218600b83613695565b9150614223826141e2565b602082019050919050565b600060208201905081810360008301526142478161420b565b9050919050565b7f426c6f7474657220616c7265616479206d696e74656400000000000000000000600082015250565b6000614284601683613695565b915061428f8261424e565b602082019050919050565b600060208201905081810360008301526142b381614277565b9050919050565b7f496e737566666963656e742066756e64732073656e7400000000000000000000600082015250565b60006142f0601683613695565b91506142fb826142ba565b602082019050919050565b6000602082019050818103600083015261431f816142e3565b9050919050565b6000815190506143358161382e565b92915050565b60006020828403121561435157614350613513565b5b600061435f84828501614326565b91505092915050565b7f54686520726563697069656e74206f6620746865204e4654206e65656473207460008201527f6f206f776e20746865206173736f636961746564206d6f6f6e62697264000000602082015250565b60006143c4603d83613695565b91506143cf82614368565b604082019050919050565b600060208201905081810360008301526143f3816143b7565b9050919050565b600061440582613745565b915061441083613745565b9250817fffffffffffffffffffffffffffffffffffffffffffffffffffffffffffffffff048311821515161561444957614448613fe8565b5b828202905092915050565b7f43757272656e7420737570706c79206d65740000000000000000000000000000600082015250565b600061448a601283613695565b915061449582614454565b602082019050919050565b600060208201905081810360008301526144b98161447d565b9050919050565b7f596f752063616e206f6e6c79206275726e20796f7572206f776e20746f6b656e60008201527f7300000000000000000000000000000000000000000000000000000000000000602082015250565b600061451c602183613695565b9150614527826144c0565b604082019050919050565b6000602082019050818103600083015261454b8161450f565b9050919050565b7f4552433732313a206f776e657220717565727920666f72206e6f6e657869737460008201527f656e7420746f6b656e0000000000000000000000000000000000000000000000602082015250565b60006145ae602983613695565b91506145b982614552565b604082019050919050565b600060208201905081810360008301526145dd816145a1565b9050919050565b7f4552433732313a2062616c616e636520717565727920666f7220746865207a6560008201527f726f206164647265737300000000000000000000000000000000000000000000602082015250565b6000614640602a83613695565b915061464b826145e4565b604082019050919050565b6000602082019050818103600083015261466f81614633565b9050919050565b7f596f752063616e206f6e6c792072656465656d206120626c6f7474657220666f60008201527f7220796f7572206f776e20746f6b656e73000000000000000000000000000000602082015250565b60006146d2603183613695565b91506146dd82614676565b604082019050919050565b60006020820190508181036000830152614701816146c5565b9050919050565b7f426c6f7474657220666f722074686973206d6f6f6e6269726420616c7265616460008201527f7920636c61696d65640000000000000000000000000000000000000000000000602082015250565b6000614764602983613695565b915061476f82614708565b604082019050919050565b6000602082019050818103600083015261479381614757565b9050919050565b7f4552433732314d657461646174613a2055524920717565727920666f72206e6f60008201527f6e6578697374656e7420746f6b656e0000000000000000000000000000000000602082015250565b60006147f6602f83613695565b91506148018261479a565b604082019050919050565b60006020820190508181036000830152614825816147e9565b9050919050565b600081905092915050565b60008190508160005260206000209050919050565b6000815461485981613e01565b614863818661482c565b9450600182166000811461487e576001811461488f576148c2565b60ff198316865281860193506148c2565b61489885614837565b60005b838110156148ba5781548189015260018201915060208101905061489b565b838801955050505b50505092915050565b7f42697264626c6f74746572200000000000000000000000000000000000000000600082015250565b6000614901600c8361482c565b915061490c826148cb565b600c82019050919050565b60006149228261368a565b61492c818561482c565b935061493c8185602086016136a6565b80840191505092915050565b7f42697264426c6f747465723a20412031302c303030204e465420436f6c6c656360008201527f74696f6e20572f2052656465656d61626c6520312f312048616e646d6164652060208201527f49524c20426c6f7474657220417274205072696e74732034204576657279204d60408201527f6f6f6e426972642e0a0a546f6b656e20486f6c6465722042656e65666974733a60608201527f20546865204e6f6e2046756e6769626c6520426c6f7474657220436f6c6c656360808201527f74696f6e3a204120536572696573206f66203130204c696d697465642052656c60a08201527f656173652049524c20426c6f7474657220417274205072696e7473204465736960c08201527f676e6564204279204c6f63616c204e594320417274697374732e0a0a4578636c60e08201527f75736976656c7920342042697264426c6f7474657220486f6c646572732e200061010082015250565b6000614ab061011f8361482c565b9150614abb82614948565b61011f82019050919050565b7f2e706e6700000000000000000000000000000000000000000000000000000000600082015250565b6000614afd60048361482c565b9150614b0882614ac7565b600482019050919050565b7f2274726169745f74797065223a2022426c6f747465722052656465656d65642260008201527f2c202276616c7565223a00000000000000000000000000000000000000000000602082015250565b6000614b6f602a8361482c565b9150614b7a82614b13565b602a82019050919050565b6000614b91828f61484c565b9150614b9c826148f4565b9150614ba8828e614917565b9150614bb4828d61484c565b9150614bbf82614aa2565b9150614bcb828c61484c565b9150614bd7828b61484c565b9150614be3828a614917565b9150614bee82614af0565b9150614bfa828961484c565b9150614c06828861484c565b9150614c128287614917565b9150614c1d82614af0565b9150614c29828661484c565b9150614c3482614b62565b9150614c408285614917565b9150614c4c828461484c565b91508190509d9c50505050505050505050505050565b7f4e487b7100000000000000000000000000000000000000000000000000000000600052601260045260246000fd5b6000614c9c82613745565b9150614ca783613745565b925082614cb757614cb6614c62565b5b828204905092915050565b7f4f776e61626c653a206e6577206f776e657220697320746865207a65726f206160008201527f6464726573730000000000000000000000000000000000000000000000000000602082015250565b6000614d1e602683613695565b9150614d2982614cc2565b604082019050919050565b60006020820190508181036000830152614d4d81614d11565b9050919050565b7f4552433732313a206f70657261746f7220717565727920666f72206e6f6e657860008201527f697374656e7420746f6b656e0000000000000000000000000000000000000000602082015250565b6000614db0602c83613695565b9150614dbb82614d54565b604082019050919050565b60006020820190508181036000830152614ddf81614da3565b9050919050565b7f4552433732313a207472616e73666572206f6620746f6b656e2074686174206960008201527f73206e6f74206f776e0000000000000000000000000000000000000000000000602082015250565b6000614e42602983613695565b9150614e4d82614de6565b604082019050919050565b60006020820190508181036000830152614e7181614e35565b9050919050565b7f4552433732313a207472616e7366657220746f20746865207a65726f2061646460008201527f7265737300000000000000000000000000000000000000000000000000000000602082015250565b6000614ed4602483613695565b9150614edf82614e78565b604082019050919050565b60006020820190508181036000830152614f0381614ec7565b9050919050565b6000614f1582613745565b9150614f2083613745565b925082821015614f3357614f32613fe8565b5b828203905092915050565b7f4552433732313a20617070726f766520746f2063616c6c657200000000000000600082015250565b6000614f74601983613695565b9150614f7f82614f3e565b602082019050919050565b60006020820190508181036000830152614fa381614f67565b9050919050565b7f4552433732313a207472616e7366657220746f206e6f6e20455243373231526560008201527f63656976657220696d706c656d656e7465720000000000000000000000000000602082015250565b6000615006603283613695565b915061501182614faa565b604082019050919050565b6000602082019050818103600083015261503581614ff9565b9050919050565b7f3030303000000000000000000000000000000000000000000000000000000000815250565b600061506d8261503c565b60048201915061507d8284614917565b915081905092915050565b7f3030300000000000000000000000000000000000000000000000000000000000815250565b60006150b982615088565b6003820191506150c98284614917565b915081905092915050565b7f3030000000000000000000000000000000000000000000000000000000000000815250565b6000615105826150d4565b6002820191506151158284614917565b915081905092915050565b7f3000000000000000000000000000000000000000000000000000000000000000815250565b600061515182615120565b6001820191506151618284614917565b915081905092915050565b7f4e487b7100000000000000000000000000000000000000000000000000000000600052603160045260246000fd5b600081519050919050565b600082825260208201905092915050565b60006151c28261519b565b6151cc81856151a6565b93506151dc8185602086016136a6565b6151e5816136d9565b840191505092915050565b60006080820190506152056000830187613804565b6152126020830186613804565b61521f604083018561374f565b818103606083015261523181846151b7565b905095945050505050565b60008151905061524b81613549565b92915050565b60006020828403121561526757615266613513565b5b60006152758482850161523c565b91505092915050565b600061528982613745565b915061529483613745565b9250826152a4576152a3614c62565b5b828206905092915050565b7f4552433732313a206d696e7420746f20746865207a65726f2061646472657373600082015250565b60006152e5602083613695565b91506152f0826152af565b602082019050919050565b60006020820190508181036000830152615314816152d8565b9050919050565b7f4552433732313a20746f6b656e20616c7265616479206d696e74656400000000600082015250565b6000615351601c83613695565b915061535c8261531b565b602082019050919050565b6000602082019050818103600083015261538081615344565b905091905056fea26469706673582212206ca1e16bb589d6524e9bed888bae9c3dd171398b1bdef6575a7d061ec679b57764736f6c634300080d0033646174613a6170706c69636174696f6e2f6a736f6e3b757466382c7b226e616d65223a22222c2022637265617465645f6279223a226e626b6d64632e657468222c2022696d616765223a22",
  "immutableReferences": {},
  "source": "// SPDX-License-Identifier: MIT\n\npragma solidity >= 0.8.13;\n\nimport \"@openzeppelin/contracts/token/ERC721/ERC721.sol\";\nimport \"@openzeppelin/contracts/token/ERC20/IERC20.sol\";\nimport \"@manifoldxyz/royalty-registry-solidity/contracts/specs/IEIP2981.sol\";\nimport \"@manifoldxyz/libraries-solidity/contracts/access/AdminControl.sol\";\nimport \"@openzeppelin/contracts/utils/Strings.sol\";\n\ncontract BirdBlotter is ERC721, AdminControl {\n    \n    uint256 public _ethPrice = 0.05*10**18; //0.05 ETH\n    uint256 private _royaltyAmount; //in % \n    uint256 public _currentBatch = 1;\n    uint256 internal _currentSupply = 0;\n\n    bool public _mintOpened;\n    bool public _allMintsAllowed;\n    \n    mapping (uint256 => bool) _moonbirdMinted;\n    mapping (uint256 => bool) _blotterRedeemed;\n\n    address public _moonBirdAddress = 0x23581767a106ae21c074b2276D25e5C3e136a68b;\n    address payable  private _royalties_recipient;\n    string[] private _uriComponents;\n\n    string _uri;\n    \n    constructor () ERC721(\"BirdBlotter\", \"BirdBlotter\") {\n        _royalties_recipient = payable(msg.sender);\n        _royaltyAmount = 10;\n        _uriComponents = [\n            'data:application/json;utf8,{\"name\":\"',\n            '\", \"description\":\"',\n            '\", \"created_by\":\"nbkmdc.eth\", \"image\":\"',\n            '\", \"image_url\":\"',\n            '\", \"attributes\":[{',\n            '}]}'];\n    } \n\n    function supportsInterface(bytes4 interfaceId)\n        public\n        view\n        virtual\n        override(ERC721, AdminControl)\n        returns (bool)\n    {\n        return\n        AdminControl.supportsInterface(interfaceId) ||\n        ERC721.supportsInterface(interfaceId) ||\n        interfaceId == type(IEIP2981).interfaceId ||\n        super.supportsInterface(interfaceId);\n    }\n\n    function publicMint(\n        uint256 moonBirdId,\n        address account\n    ) external payable{\n        require(_mintOpened, \"Mint closed\");\n        require(_moonbirdMinted[moonBirdId] == false, \"Blotter already minted\");\n        require(msg.value >= _ethPrice, \"Insufficent funds sent\");\n        require(IERC721(_moonBirdAddress).ownerOf(moonBirdId) == account, \"The recipient of the NFT needs to own the associated moonbird\");\n        if(!_allMintsAllowed){\n            require(_currentSupply < _currentBatch * 1000, \"Current supply met\");\n        }\n        payable(_royalties_recipient).transfer(_ethPrice);\n        _safeMint(account , moonBirdId);\n        _moonbirdMinted[moonBirdId] = true;\n        _currentSupply += 1;\n    }\n\n    function adminMint(\n        uint256 moonBirdId,\n        address account\n    ) external adminRequired{\n        _safeMint(account ,moonBirdId);\n        _moonbirdMinted[moonBirdId] = true;\n        _currentSupply += 1;\n    }\n\n    function toggleMintState()external adminRequired{\n        _mintOpened = !_mintOpened;\n    }\n\n    function toggleAllMintsAllowedState()external adminRequired{\n        _allMintsAllowed = !_allMintsAllowed;\n    }\n\n    function setMoonbirdAddress(address moonBirdAddress) external adminRequired{\n        _moonBirdAddress = moonBirdAddress;\n    }\n\n    function getBlotterName(uint256 blotterId) pure internal returns(string memory){\n        string memory blotterIdStr;\n        if(blotterId < 10){\n            blotterIdStr = string.concat('0000', Strings.toString(blotterId));\n        }else if(blotterId <100){\n            blotterIdStr =  string.concat('000', Strings.toString(blotterId));\n        }else if(blotterId <1000){\n            blotterIdStr =  string.concat('00', Strings.toString(blotterId));\n        }else{\n            blotterIdStr = string.concat('0', Strings.toString(blotterId));\n        }\n        return blotterIdStr;\n    }\n\n    function setURI(string calldata updatedURI) external adminRequired{\n        _uri = updatedURI;\n    }\n\n    function tokenURI(uint256 tokenId) public view virtual override returns (string memory) {\n        require(_exists(tokenId), \"ERC721Metadata: URI query for nonexistent token\");\n        string memory blotterName = getBlotterName(tokenId);\n    \n        bytes memory byteString = abi.encodePacked(\n            _uriComponents[0], 'Birdblotter ',  blotterName,\n            _uriComponents[1], 'BirdBlotter: A 10,000 NFT Collection W/ Redeemable 1/1 Handmade IRL Blotter Art Prints 4 Every MoonBird.\\n\\nToken Holder Benefits: The Non Fungible Blotter Collection: A Series of 10 Limited Release IRL Blotter Art Prints Designed By Local NYC Artists.\\n\\nExclusively 4 BirdBlotter Holders. ',\n            _uriComponents[2],_uri, blotterName, \".png\",\n            _uriComponents[3], _uri, blotterName, \".png\",\n            _uriComponents[4], '\"trait_type\": \"Blotter Redeemed\", \"value\":',  _blotterRedeemed[tokenId] ? '\"true\"' : '\"false\"',\n            _uriComponents[5]);\n        return string(byteString);\n    }\n\n    function increateSupply() public adminRequired{\n        _currentBatch += 1;\n    }\n\n    function getMaxSupply() public view returns(uint256){\n        return _currentBatch * 1000;\n    }\n\n    function redeemBlotter(uint256 tokenId) public {\n        require(ownerOf(tokenId) == msg.sender, \"You can only redeem a blotter for your own tokens\");\n        require(_blotterRedeemed[tokenId] == false, \"Blotter for this moonbird already claimed\");\n        _blotterRedeemed[tokenId] = true;\n    }\n\n    function burn(uint256 tokenId) public {\n        require(ownerOf(tokenId)== msg.sender, \"You can only burn your own tokens\");\n        _burn(tokenId);\n    }\n\n    function setRoyalties(address payable _recipient, uint256 _royaltyPerCent) external adminRequired {\n        _royalties_recipient = _recipient;\n        _royaltyAmount = _royaltyPerCent;\n    }\n\n    function royaltyInfo(uint256 salePrice) external view returns (address, uint256) {\n        if(_royalties_recipient != address(0)){\n            return (_royalties_recipient, (salePrice * _royaltyAmount) / 100 );\n        }\n        return (address(0), 0);\n    }\n\n    function withdraw(address recipient) external adminRequired {\n        payable(recipient).transfer(address(this).balance);\n    }\n\n}",
  "sourcePath": "/Users/bct/Documents/Dev/NFT_dev/Birdblotter copy/contracts/BirdBlotter copy.sol",
  "compiler": {
    "name": "solc",
    "version": "0.8.13+commit.abaa5c0e.Emscripten.clang"
  },
  "schemaVersion": "3.4.4",
  "updatedAt": "2022-07-27T10:23:54.445Z",
  "devdoc": {
    "kind": "dev",
    "methods": {
      "approve(address,uint256)": {
        "details": "See {IERC721-approve}."
      },
      "approveAdmin(address)": {
        "details": "See {IAdminControl-approveAdmin}."
      },
      "balanceOf(address)": {
        "details": "See {IERC721-balanceOf}."
      },
      "getAdmins()": {
        "details": "See {IAdminControl-getAdmins}."
      },
      "getApproved(uint256)": {
        "details": "See {IERC721-getApproved}."
      },
      "isAdmin(address)": {
        "details": "See {IAdminControl-isAdmin}."
      },
      "isApprovedForAll(address,address)": {
        "details": "See {IERC721-isApprovedForAll}."
      },
      "name()": {
        "details": "See {IERC721Metadata-name}."
      },
      "owner()": {
        "details": "Returns the address of the current owner."
      },
      "ownerOf(uint256)": {
        "details": "See {IERC721-ownerOf}."
      },
      "renounceOwnership()": {
        "details": "Leaves the contract without owner. It will not be possible to call `onlyOwner` functions anymore. Can only be called by the current owner. NOTE: Renouncing ownership will leave the contract without an owner, thereby removing any functionality that is only available to the owner."
      },
      "revokeAdmin(address)": {
        "details": "See {IAdminControl-revokeAdmin}."
      },
      "safeTransferFrom(address,address,uint256)": {
        "details": "See {IERC721-safeTransferFrom}."
      },
      "safeTransferFrom(address,address,uint256,bytes)": {
        "details": "See {IERC721-safeTransferFrom}."
      },
      "setApprovalForAll(address,bool)": {
        "details": "See {IERC721-setApprovalForAll}."
      },
      "symbol()": {
        "details": "See {IERC721Metadata-symbol}."
      },
      "tokenURI(uint256)": {
        "details": "See {IERC721Metadata-tokenURI}."
      },
      "transferFrom(address,address,uint256)": {
        "details": "See {IERC721-transferFrom}."
      },
      "transferOwnership(address)": {
        "details": "Transfers ownership of the contract to a new account (`newOwner`). Can only be called by the current owner."
      }
    },
    "version": 1
  },
  "userdoc": {
    "kind": "user",
    "methods": {},
    "version": 1
  }
}