{
  "contractName": "MoonbirdTest",
  "abi": [
    {
      "inputs": [],
      "stateMutability": "nonpayable",
      "type": "constructor"
    },
    {
      "anonymous": false,
      "inputs": [
        {
          "indexed": true,
          "internalType": "address",
          "name": "account",
          "type": "address"
        },
        {
          "indexed": true,
          "internalType": "address",
          "name": "sender",
          "type": "address"
        }
      ],
      "name": "AdminApproved",
      "type": "event"
    },
    {
      "anonymous": false,
      "inputs": [
        {
          "indexed": true,
          "internalType": "address",
          "name": "account",
          "type": "address"
        },
        {
          "indexed": true,
          "internalType": "address",
          "name": "sender",
          "type": "address"
        }
      ],
      "name": "AdminRevoked",
      "type": "event"
    },
    {
      "anonymous": false,
      "inputs": [
        {
          "indexed": true,
          "internalType": "address",
          "name": "owner",
          "type": "address"
        },
        {
          "indexed": true,
          "internalType": "address",
          "name": "approved",
          "type": "address"
        },
        {
          "indexed": true,
          "internalType": "uint256",
          "name": "tokenId",
          "type": "uint256"
        }
      ],
      "name": "Approval",
      "type": "event"
    },
    {
      "anonymous": false,
      "inputs": [
        {
          "indexed": true,
          "internalType": "address",
          "name": "owner",
          "type": "address"
        },
        {
          "indexed": true,
          "internalType": "address",
          "name": "operator",
          "type": "address"
        },
        {
          "indexed": false,
          "internalType": "bool",
          "name": "approved",
          "type": "bool"
        }
      ],
      "name": "ApprovalForAll",
      "type": "event"
    },
    {
      "anonymous": false,
      "inputs": [
        {
          "indexed": true,
          "internalType": "address",
          "name": "previousOwner",
          "type": "address"
        },
        {
          "indexed": true,
          "internalType": "address",
          "name": "newOwner",
          "type": "address"
        }
      ],
      "name": "OwnershipTransferred",
      "type": "event"
    },
    {
      "anonymous": false,
      "inputs": [
        {
          "indexed": true,
          "internalType": "address",
          "name": "from",
          "type": "address"
        },
        {
          "indexed": true,
          "internalType": "address",
          "name": "to",
          "type": "address"
        },
        {
          "indexed": true,
          "internalType": "uint256",
          "name": "tokenId",
          "type": "uint256"
        }
      ],
      "name": "Transfer",
      "type": "event"
    },
    {
      "inputs": [],
      "name": "_allMintsAllowed",
      "outputs": [
        {
          "internalType": "bool",
          "name": "",
          "type": "bool"
        }
      ],
      "stateMutability": "view",
      "type": "function"
    },
    {
      "inputs": [],
      "name": "_mintOpened",
      "outputs": [
        {
          "internalType": "bool",
          "name": "",
          "type": "bool"
        }
      ],
      "stateMutability": "view",
      "type": "function"
    },
    {
      "inputs": [],
      "name": "_moonBirdAddress",
      "outputs": [
        {
          "internalType": "address",
          "name": "",
          "type": "address"
        }
      ],
      "stateMutability": "view",
      "type": "function"
    },
    {
      "inputs": [
        {
          "internalType": "address",
          "name": "to",
          "type": "address"
        },
        {
          "internalType": "uint256",
          "name": "tokenId",
          "type": "uint256"
        }
      ],
      "name": "approve",
      "outputs": [],
      "stateMutability": "nonpayable",
      "type": "function"
    },
    {
      "inputs": [
        {
          "internalType": "address",
          "name": "admin",
          "type": "address"
        }
      ],
      "name": "approveAdmin",
      "outputs": [],
      "stateMutability": "nonpayable",
      "type": "function"
    },
    {
      "inputs": [
        {
          "internalType": "address",
          "name": "owner",
          "type": "address"
        }
      ],
      "name": "balanceOf",
      "outputs": [
        {
          "internalType": "uint256",
          "name": "",
          "type": "uint256"
        }
      ],
      "stateMutability": "view",
      "type": "function"
    },
    {
      "inputs": [],
      "name": "getAdmins",
      "outputs": [
        {
          "internalType": "address[]",
          "name": "admins",
          "type": "address[]"
        }
      ],
      "stateMutability": "view",
      "type": "function"
    },
    {
      "inputs": [
        {
          "internalType": "uint256",
          "name": "tokenId",
          "type": "uint256"
        }
      ],
      "name": "getApproved",
      "outputs": [
        {
          "internalType": "address",
          "name": "",
          "type": "address"
        }
      ],
      "stateMutability": "view",
      "type": "function"
    },
    {
      "inputs": [
        {
          "internalType": "address",
          "name": "admin",
          "type": "address"
        }
      ],
      "name": "isAdmin",
      "outputs": [
        {
          "internalType": "bool",
          "name": "",
          "type": "bool"
        }
      ],
      "stateMutability": "view",
      "type": "function"
    },
    {
      "inputs": [
        {
          "internalType": "address",
          "name": "owner",
          "type": "address"
        },
        {
          "internalType": "address",
          "name": "operator",
          "type": "address"
        }
      ],
      "name": "isApprovedForAll",
      "outputs": [
        {
          "internalType": "bool",
          "name": "",
          "type": "bool"
        }
      ],
      "stateMutability": "view",
      "type": "function"
    },
    {
      "inputs": [],
      "name": "name",
      "outputs": [
        {
          "internalType": "string",
          "name": "",
          "type": "string"
        }
      ],
      "stateMutability": "view",
      "type": "function"
    },
    {
      "inputs": [],
      "name": "owner",
      "outputs": [
        {
          "internalType": "address",
          "name": "",
          "type": "address"
        }
      ],
      "stateMutability": "view",
      "type": "function"
    },
    {
      "inputs": [
        {
          "internalType": "uint256",
          "name": "tokenId",
          "type": "uint256"
        }
      ],
      "name": "ownerOf",
      "outputs": [
        {
          "internalType": "address",
          "name": "",
          "type": "address"
        }
      ],
      "stateMutability": "view",
      "type": "function"
    },
    {
      "inputs": [],
      "name": "renounceOwnership",
      "outputs": [],
      "stateMutability": "nonpayable",
      "type": "function"
    },
    {
      "inputs": [
        {
          "internalType": "address",
          "name": "admin",
          "type": "address"
        }
      ],
      "name": "revokeAdmin",
      "outputs": [],
      "stateMutability": "nonpayable",
      "type": "function"
    },
    {
      "inputs": [
        {
          "internalType": "address",
          "name": "from",
          "type": "address"
        },
        {
          "internalType": "address",
          "name": "to",
          "type": "address"
        },
        {
          "internalType": "uint256",
          "name": "tokenId",
          "type": "uint256"
        }
      ],
      "name": "safeTransferFrom",
      "outputs": [],
      "stateMutability": "nonpayable",
      "type": "function"
    },
    {
      "inputs": [
        {
          "internalType": "address",
          "name": "from",
          "type": "address"
        },
        {
          "internalType": "address",
          "name": "to",
          "type": "address"
        },
        {
          "internalType": "uint256",
          "name": "tokenId",
          "type": "uint256"
        },
        {
          "internalType": "bytes",
          "name": "_data",
          "type": "bytes"
        }
      ],
      "name": "safeTransferFrom",
      "outputs": [],
      "stateMutability": "nonpayable",
      "type": "function"
    },
    {
      "inputs": [
        {
          "internalType": "address",
          "name": "operator",
          "type": "address"
        },
        {
          "internalType": "bool",
          "name": "approved",
          "type": "bool"
        }
      ],
      "name": "setApprovalForAll",
      "outputs": [],
      "stateMutability": "nonpayable",
      "type": "function"
    },
    {
      "inputs": [],
      "name": "symbol",
      "outputs": [
        {
          "internalType": "string",
          "name": "",
          "type": "string"
        }
      ],
      "stateMutability": "view",
      "type": "function"
    },
    {
      "inputs": [
        {
          "internalType": "address",
          "name": "from",
          "type": "address"
        },
        {
          "internalType": "address",
          "name": "to",
          "type": "address"
        },
        {
          "internalType": "uint256",
          "name": "tokenId",
          "type": "uint256"
        }
      ],
      "name": "transferFrom",
      "outputs": [],
      "stateMutability": "nonpayable",
      "type": "function"
    },
    {
      "inputs": [
        {
          "internalType": "address",
          "name": "newOwner",
          "type": "address"
        }
      ],
      "name": "transferOwnership",
      "outputs": [],
      "stateMutability": "nonpayable",
      "type": "function"
    },
    {
      "inputs": [
        {
          "internalType": "bytes4",
          "name": "interfaceId",
          "type": "bytes4"
        }
      ],
      "name": "supportsInterface",
      "outputs": [
        {
          "internalType": "bool",
          "name": "",
          "type": "bool"
        }
      ],
      "stateMutability": "view",
      "type": "function"
    },
    {
      "inputs": [
        {
          "internalType": "address",
          "name": "recipient",
          "type": "address"
        },
        {
          "internalType": "uint256",
          "name": "tokenId",
          "type": "uint256"
        }
      ],
      "name": "publicMint",
      "outputs": [],
      "stateMutability": "payable",
      "type": "function"
    },
    {
      "inputs": [
        {
          "internalType": "uint256",
          "name": "tokenId",
          "type": "uint256"
        }
      ],
      "name": "tokenURI",
      "outputs": [
        {
          "internalType": "string",
          "name": "",
          "type": "string"
        }
      ],
      "stateMutability": "view",
      "type": "function"
    },
    {
      "inputs": [
        {
          "internalType": "uint256",
          "name": "tokenId",
          "type": "uint256"
        }
      ],
      "name": "burn",
      "outputs": [],
      "stateMutability": "nonpayable",
      "type": "function"
    },
    {
      "inputs": [
        {
          "internalType": "address payable",
          "name": "_recipient",
          "type": "address"
        },
        {
          "internalType": "uint256",
          "name": "_royaltyPerCent",
          "type": "uint256"
        }
      ],
      "name": "setRoyalties",
      "outputs": [],
      "stateMutability": "nonpayable",
      "type": "function"
    },
    {
      "inputs": [
        {
          "internalType": "uint256",
          "name": "salePrice",
          "type": "uint256"
        }
      ],
      "name": "royaltyInfo",
      "outputs": [
        {
          "internalType": "address",
          "name": "",
          "type": "address"
        },
        {
          "internalType": "uint256",
          "name": "",
          "type": "uint256"
        }
      ],
      "stateMutability": "view",
      "type": "function"
    },
    {
      "inputs": [
        {
          "internalType": "address",
          "name": "recipient",
          "type": "address"
        }
      ],
      "name": "withdraw",
      "outputs": [],
      "stateMutability": "nonpayable",
      "type": "function"
    }
  ],
  "bytecode": "0x60806040527323581767a106ae21c074b2276d25e5c3e136a68b600d60006101000a81548173ffffffffffffffffffffffffffffffffffffffff021916908373ffffffffffffffffffffffffffffffffffffffff1602179055503480156200006657600080fd5b506040518060400160405280600c81526020017f4d6f6f6e626972645465737400000000000000000000000000000000000000008152506040518060400160405280600c81526020017f4d6f6f6e62697264546573740000000000000000000000000000000000000000815250620000f3620000e76200017660201b60201c565b6200017e60201b60201c565b81600190805190602001906200010b92919062000242565b5080600290805190602001906200012492919062000242565b50505033600e60006101000a81548173ffffffffffffffffffffffffffffffffffffffff021916908373ffffffffffffffffffffffffffffffffffffffff160217905550600a60098190555062000356565b600033905090565b60008060009054906101000a900473ffffffffffffffffffffffffffffffffffffffff169050816000806101000a81548173ffffffffffffffffffffffffffffffffffffffff021916908373ffffffffffffffffffffffffffffffffffffffff1602179055508173ffffffffffffffffffffffffffffffffffffffff168173ffffffffffffffffffffffffffffffffffffffff167f8be0079c531659141344cd1fd0a4f28419497f9722a3daafe3b4186f6b6457e060405160405180910390a35050565b828054620002509062000321565b90600052602060002090601f016020900481019282620002745760008555620002c0565b82601f106200028f57805160ff1916838001178555620002c0565b82800160010185558215620002c0579182015b82811115620002bf578251825591602001919060010190620002a2565b5b509050620002cf9190620002d3565b5090565b5b80821115620002ee576000816000905550600101620002d4565b5090565b7f4e487b7100000000000000000000000000000000000000000000000000000000600052602260045260246000fd5b600060028204905060018216806200033a57607f821691505b60208210810362000350576200034f620002f2565b5b50919050565b613afa80620003666000396000f3fe6080604052600436106101b75760003560e01c80636d73e669116100ec578063b88d4fde1161008a578063ce6df2b911610064578063ce6df2b914610608578063cef6d36814610624578063e985e9c514610662578063f2fde38b1461069f576101b7565b8063b88d4fde14610577578063c847d3c0146105a0578063c87b56dd146105cb576101b7565b80638c7ea24b116100c65780638c7ea24b146104cf5780638da5cb5b146104f857806395d89b4114610523578063a22cb4651461054e576101b7565b80636d73e6691461045257806370a082311461047b578063715018a6146104b8576101b7565b80632d3456701161015957806342842e0e1161013357806342842e0e1461039a57806342966c68146103c357806351cff8d9146103ec5780636352211e14610415576101b7565b80632d3456701461031b57806331ae450b146103445780633ba5d5951461036f576101b7565b8063095ea7b311610195578063095ea7b31461026157806319981dd11461028a57806323b872dd146102b557806324d7806c146102de576101b7565b806301ffc9a7146101bc57806306fdde03146101f9578063081812fc14610224575b600080fd5b3480156101c857600080fd5b506101e360048036038101906101de9190612672565b6106c8565b6040516101f091906126ba565b60405180910390f35b34801561020557600080fd5b5061020e610762565b60405161021b919061276e565b60405180910390f35b34801561023057600080fd5b5061024b600480360381019061024691906127c6565b6107f4565b6040516102589190612834565b60405180910390f35b34801561026d57600080fd5b506102886004803603810190610283919061287b565b610879565b005b34801561029657600080fd5b5061029f610990565b6040516102ac91906126ba565b60405180910390f35b3480156102c157600080fd5b506102dc60048036038101906102d791906128bb565b6109a3565b005b3480156102ea57600080fd5b506103056004803603810190610300919061290e565b610a03565b60405161031291906126ba565b60405180910390f35b34801561032757600080fd5b50610342600480360381019061033d919061290e565b610a5d565b005b34801561035057600080fd5b50610359610b65565b60405161036691906129f9565b60405180910390f35b34801561037b57600080fd5b50610384610c47565b6040516103919190612834565b60405180910390f35b3480156103a657600080fd5b506103c160048036038101906103bc91906128bb565b610c6d565b005b3480156103cf57600080fd5b506103ea60048036038101906103e591906127c6565b610c8d565b005b3480156103f857600080fd5b50610413600480360381019061040e919061290e565b610d0f565b005b34801561042157600080fd5b5061043c600480360381019061043791906127c6565b610de9565b6040516104499190612834565b60405180910390f35b34801561045e57600080fd5b506104796004803603810190610474919061290e565b610e9a565b005b34801561048757600080fd5b506104a2600480360381019061049d919061290e565b610fa1565b6040516104af9190612a2a565b60405180910390f35b3480156104c457600080fd5b506104cd611058565b005b3480156104db57600080fd5b506104f660048036038101906104f19190612a83565b6110e0565b005b34801561050457600080fd5b5061050d6111bc565b60405161051a9190612834565b60405180910390f35b34801561052f57600080fd5b506105386111e5565b604051610545919061276e565b60405180910390f35b34801561055a57600080fd5b5061057560048036038101906105709190612aef565b611277565b005b34801561058357600080fd5b5061059e60048036038101906105999190612c64565b61128d565b005b3480156105ac57600080fd5b506105b56112ef565b6040516105c291906126ba565b60405180910390f35b3480156105d757600080fd5b506105f260048036038101906105ed91906127c6565b611302565b6040516105ff919061276e565b60405180910390f35b610622600480360381019061061d919061287b565b611371565b005b34801561063057600080fd5b5061064b600480360381019061064691906127c6565b61137f565b604051610659929190612ce7565b60405180910390f35b34801561066e57600080fd5b5061068960048036038101906106849190612d10565b61142b565b60405161069691906126ba565b60405180910390f35b3480156106ab57600080fd5b506106c660048036038101906106c1919061290e565b6114bf565b005b60006106d3826115b6565b806106e357506106e282611630565b5b8061074b57507f2a55205a000000000000000000000000000000000000000000000000000000007bffffffffffffffffffffffffffffffffffffffffffffffffffffffff1916827bffffffffffffffffffffffffffffffffffffffffffffffffffffffff1916145b8061075b575061075a826115b6565b5b9050919050565b60606001805461077190612d7f565b80601f016020809104026020016040519081016040528092919081815260200182805461079d90612d7f565b80156107ea5780601f106107bf576101008083540402835291602001916107ea565b820191906000526020600020905b8154815290600101906020018083116107cd57829003601f168201915b5050505050905090565b60006107ff82611712565b61083e576040517f08c379a000000000000000000000000000000000000000000000000000000000815260040161083590612e22565b60405180910390fd5b6005600083815260200190815260200160002060009054906101000a900473ffffffffffffffffffffffffffffffffffffffff169050919050565b600061088482610de9565b90508073ffffffffffffffffffffffffffffffffffffffff168373ffffffffffffffffffffffffffffffffffffffff16036108f4576040517f08c379a00000000000000000000000000000000000000000000000000000000081526004016108eb90612eb4565b60405180910390fd5b8073ffffffffffffffffffffffffffffffffffffffff1661091361177e565b73ffffffffffffffffffffffffffffffffffffffff16148061094257506109418161093c61177e565b61142b565b5b610981576040517f08c379a000000000000000000000000000000000000000000000000000000000815260040161097890612f46565b60405180910390fd5b61098b8383611786565b505050565b600a60009054906101000a900460ff1681565b6109b46109ae61177e565b8261183f565b6109f3576040517f08c379a00000000000000000000000000000000000000000000000000000000081526004016109ea90612fd8565b60405180910390fd5b6109fe83838361191d565b505050565b60008173ffffffffffffffffffffffffffffffffffffffff16610a246111bc565b73ffffffffffffffffffffffffffffffffffffffff161480610a565750610a55826007611b7890919063ffffffff16565b5b9050919050565b610a6561177e565b73ffffffffffffffffffffffffffffffffffffffff16610a836111bc565b73ffffffffffffffffffffffffffffffffffffffff1614610ad9576040517f08c379a0000000000000000000000000000000000000000000000000000000008152600401610ad090613044565b60405180910390fd5b610aed816007611b7890919063ffffffff16565b15610b62573373ffffffffffffffffffffffffffffffffffffffff168173ffffffffffffffffffffffffffffffffffffffff167f7c0c3c84c67c85fcac635147348bfe374c24a1a93d0366d1cfe9d8853cbf89d560405160405180910390a3610b60816007611ba890919063ffffffff16565b505b50565b6060610b716007611bd8565b67ffffffffffffffff811115610b8a57610b89612b39565b5b604051908082528060200260200182016040528015610bb85781602001602082028036833780820191505090505b50905060005b610bc86007611bd8565b811015610c4357610be3816007611bed90919063ffffffff16565b828281518110610bf657610bf5613064565b5b602002602001019073ffffffffffffffffffffffffffffffffffffffff16908173ffffffffffffffffffffffffffffffffffffffff16815250508080610c3b906130c2565b915050610bbe565b5090565b600d60009054906101000a900473ffffffffffffffffffffffffffffffffffffffff1681565b610c888383836040518060200160405280600081525061128d565b505050565b3373ffffffffffffffffffffffffffffffffffffffff16610cad82610de9565b73ffffffffffffffffffffffffffffffffffffffff1614610d03576040517f08c379a0000000000000000000000000000000000000000000000000000000008152600401610cfa9061317c565b60405180910390fd5b610d0c81611c07565b50565b3373ffffffffffffffffffffffffffffffffffffffff16610d2e6111bc565b73ffffffffffffffffffffffffffffffffffffffff161480610d605750610d5f336007611b7890919063ffffffff16565b5b610d9f576040517f08c379a0000000000000000000000000000000000000000000000000000000008152600401610d969061320e565b60405180910390fd5b8073ffffffffffffffffffffffffffffffffffffffff166108fc479081150290604051600060405180830381858888f19350505050158015610de5573d6000803e3d6000fd5b5050565b6000806003600084815260200190815260200160002060009054906101000a900473ffffffffffffffffffffffffffffffffffffffff169050600073ffffffffffffffffffffffffffffffffffffffff168173ffffffffffffffffffffffffffffffffffffffff1603610e91576040517f08c379a0000000000000000000000000000000000000000000000000000000008152600401610e88906132a0565b60405180910390fd5b80915050919050565b610ea261177e565b73ffffffffffffffffffffffffffffffffffffffff16610ec06111bc565b73ffffffffffffffffffffffffffffffffffffffff1614610f16576040517f08c379a0000000000000000000000000000000000000000000000000000000008152600401610f0d90613044565b60405180910390fd5b610f2a816007611b7890919063ffffffff16565b610f9e573373ffffffffffffffffffffffffffffffffffffffff168173ffffffffffffffffffffffffffffffffffffffff167f7e1a1a08d52e4ba0e21554733d66165fd5151f99460116223d9e3a608eec5cb160405160405180910390a3610f9c816007611d1890919063ffffffff16565b505b50565b60008073ffffffffffffffffffffffffffffffffffffffff168273ffffffffffffffffffffffffffffffffffffffff1603611011576040517f08c379a000000000000000000000000000000000000000000000000000000000815260040161100890613332565b60405180910390fd5b600460008373ffffffffffffffffffffffffffffffffffffffff1673ffffffffffffffffffffffffffffffffffffffff168152602001908152602001600020549050919050565b61106061177e565b73ffffffffffffffffffffffffffffffffffffffff1661107e6111bc565b73ffffffffffffffffffffffffffffffffffffffff16146110d4576040517f08c379a00000000000000000000000000000000000000000000000000000000081526004016110cb90613044565b60405180910390fd5b6110de6000611d48565b565b3373ffffffffffffffffffffffffffffffffffffffff166110ff6111bc565b73ffffffffffffffffffffffffffffffffffffffff1614806111315750611130336007611b7890919063ffffffff16565b5b611170576040517f08c379a00000000000000000000000000000000000000000000000000000000081526004016111679061320e565b60405180910390fd5b81600e60006101000a81548173ffffffffffffffffffffffffffffffffffffffff021916908373ffffffffffffffffffffffffffffffffffffffff160217905550806009819055505050565b60008060009054906101000a900473ffffffffffffffffffffffffffffffffffffffff16905090565b6060600280546111f490612d7f565b80601f016020809104026020016040519081016040528092919081815260200182805461122090612d7f565b801561126d5780601f106112425761010080835404028352916020019161126d565b820191906000526020600020905b81548152906001019060200180831161125057829003601f168201915b5050505050905090565b61128961128261177e565b8383611e0c565b5050565b61129e61129861177e565b8361183f565b6112dd576040517f08c379a00000000000000000000000000000000000000000000000000000000081526004016112d490612fd8565b60405180910390fd5b6112e984848484611f78565b50505050565b600a60019054906101000a900460ff1681565b606061130d82611712565b61134c576040517f08c379a0000000000000000000000000000000000000000000000000000000008152600401611343906133c4565b60405180910390fd5b60405160200161135b9061343b565b6040516020818303038152906040529050919050565b61137b8282611fd4565b5050565b600080600073ffffffffffffffffffffffffffffffffffffffff16600e60009054906101000a900473ffffffffffffffffffffffffffffffffffffffff1673ffffffffffffffffffffffffffffffffffffffff161461141e57600e60009054906101000a900473ffffffffffffffffffffffffffffffffffffffff1660646009548561140b9190613450565b61141591906134d9565b91509150611426565b600080915091505b915091565b6000600660008473ffffffffffffffffffffffffffffffffffffffff1673ffffffffffffffffffffffffffffffffffffffff16815260200190815260200160002060008373ffffffffffffffffffffffffffffffffffffffff1673ffffffffffffffffffffffffffffffffffffffff16815260200190815260200160002060009054906101000a900460ff16905092915050565b6114c761177e565b73ffffffffffffffffffffffffffffffffffffffff166114e56111bc565b73ffffffffffffffffffffffffffffffffffffffff161461153b576040517f08c379a000000000000000000000000000000000000000000000000000000000815260040161153290613044565b60405180910390fd5b600073ffffffffffffffffffffffffffffffffffffffff168173ffffffffffffffffffffffffffffffffffffffff16036115aa576040517f08c379a00000000000000000000000000000000000000000000000000000000081526004016115a19061357c565b60405180910390fd5b6115b381611d48565b50565b60007f553e757e000000000000000000000000000000000000000000000000000000007bffffffffffffffffffffffffffffffffffffffffffffffffffffffff1916827bffffffffffffffffffffffffffffffffffffffffffffffffffffffff19161480611629575061162882611630565b5b9050919050565b60007f80ac58cd000000000000000000000000000000000000000000000000000000007bffffffffffffffffffffffffffffffffffffffffffffffffffffffff1916827bffffffffffffffffffffffffffffffffffffffffffffffffffffffff191614806116fb57507f5b5e139f000000000000000000000000000000000000000000000000000000007bffffffffffffffffffffffffffffffffffffffffffffffffffffffff1916827bffffffffffffffffffffffffffffffffffffffffffffffffffffffff1916145b8061170b575061170a82611ff2565b5b9050919050565b60008073ffffffffffffffffffffffffffffffffffffffff166003600084815260200190815260200160002060009054906101000a900473ffffffffffffffffffffffffffffffffffffffff1673ffffffffffffffffffffffffffffffffffffffff1614159050919050565b600033905090565b816005600083815260200190815260200160002060006101000a81548173ffffffffffffffffffffffffffffffffffffffff021916908373ffffffffffffffffffffffffffffffffffffffff160217905550808273ffffffffffffffffffffffffffffffffffffffff166117f983610de9565b73ffffffffffffffffffffffffffffffffffffffff167f8c5be1e5ebec7d5bd14f71427d1e84f3dd0314c0f7b2291e5b200ac8c7c3b92560405160405180910390a45050565b600061184a82611712565b611889576040517f08c379a00000000000000000000000000000000000000000000000000000000081526004016118809061360e565b60405180910390fd5b600061189483610de9565b90508073ffffffffffffffffffffffffffffffffffffffff168473ffffffffffffffffffffffffffffffffffffffff16148061190357508373ffffffffffffffffffffffffffffffffffffffff166118eb846107f4565b73ffffffffffffffffffffffffffffffffffffffff16145b806119145750611913818561142b565b5b91505092915050565b8273ffffffffffffffffffffffffffffffffffffffff1661193d82610de9565b73ffffffffffffffffffffffffffffffffffffffff1614611993576040517f08c379a000000000000000000000000000000000000000000000000000000000815260040161198a906136a0565b60405180910390fd5b600073ffffffffffffffffffffffffffffffffffffffff168273ffffffffffffffffffffffffffffffffffffffff1603611a02576040517f08c379a00000000000000000000000000000000000000000000000000000000081526004016119f990613732565b60405180910390fd5b611a0d83838361205c565b611a18600082611786565b6001600460008573ffffffffffffffffffffffffffffffffffffffff1673ffffffffffffffffffffffffffffffffffffffff1681526020019081526020016000206000828254611a689190613752565b925050819055506001600460008473ffffffffffffffffffffffffffffffffffffffff1673ffffffffffffffffffffffffffffffffffffffff1681526020019081526020016000206000828254611abf9190613786565b92505081905550816003600083815260200190815260200160002060006101000a81548173ffffffffffffffffffffffffffffffffffffffff021916908373ffffffffffffffffffffffffffffffffffffffff160217905550808273ffffffffffffffffffffffffffffffffffffffff168473ffffffffffffffffffffffffffffffffffffffff167fddf252ad1be2c89b69c2b068fc378daa952ba7f163c4a11628f55a4df523b3ef60405160405180910390a4505050565b6000611ba0836000018373ffffffffffffffffffffffffffffffffffffffff1660001b612061565b905092915050565b6000611bd0836000018373ffffffffffffffffffffffffffffffffffffffff1660001b612084565b905092915050565b6000611be682600001612198565b9050919050565b6000611bfc83600001836121a9565b60001c905092915050565b6000611c1282610de9565b9050611c208160008461205c565b611c2b600083611786565b6001600460008373ffffffffffffffffffffffffffffffffffffffff1673ffffffffffffffffffffffffffffffffffffffff1681526020019081526020016000206000828254611c7b9190613752565b925050819055506003600083815260200190815260200160002060006101000a81549073ffffffffffffffffffffffffffffffffffffffff021916905581600073ffffffffffffffffffffffffffffffffffffffff168273ffffffffffffffffffffffffffffffffffffffff167fddf252ad1be2c89b69c2b068fc378daa952ba7f163c4a11628f55a4df523b3ef60405160405180910390a45050565b6000611d40836000018373ffffffffffffffffffffffffffffffffffffffff1660001b6121d4565b905092915050565b60008060009054906101000a900473ffffffffffffffffffffffffffffffffffffffff169050816000806101000a81548173ffffffffffffffffffffffffffffffffffffffff021916908373ffffffffffffffffffffffffffffffffffffffff1602179055508173ffffffffffffffffffffffffffffffffffffffff168173ffffffffffffffffffffffffffffffffffffffff167f8be0079c531659141344cd1fd0a4f28419497f9722a3daafe3b4186f6b6457e060405160405180910390a35050565b8173ffffffffffffffffffffffffffffffffffffffff168373ffffffffffffffffffffffffffffffffffffffff1603611e7a576040517f08c379a0000000000000000000000000000000000000000000000000000000008152600401611e7190613828565b60405180910390fd5b80600660008573ffffffffffffffffffffffffffffffffffffffff1673ffffffffffffffffffffffffffffffffffffffff16815260200190815260200160002060008473ffffffffffffffffffffffffffffffffffffffff1673ffffffffffffffffffffffffffffffffffffffff16815260200190815260200160002060006101000a81548160ff0219169083151502179055508173ffffffffffffffffffffffffffffffffffffffff168373ffffffffffffffffffffffffffffffffffffffff167f17307eab39ab6107e8899845ad3d59bd9653f200f220920489ca2b5937696c3183604051611f6b91906126ba565b60405180910390a3505050565b611f8384848461191d565b611f8f84848484612244565b611fce576040517f08c379a0000000000000000000000000000000000000000000000000000000008152600401611fc5906138ba565b60405180910390fd5b50505050565b611fee8282604051806020016040528060008152506123cb565b5050565b60007f01ffc9a7000000000000000000000000000000000000000000000000000000007bffffffffffffffffffffffffffffffffffffffffffffffffffffffff1916827bffffffffffffffffffffffffffffffffffffffffffffffffffffffff1916149050919050565b505050565b600080836001016000848152602001908152602001600020541415905092915050565b6000808360010160008481526020019081526020016000205490506000811461218c5760006001826120b69190613752565b90506000600186600001805490506120ce9190613752565b905081811461213d5760008660000182815481106120ef576120ee613064565b5b906000526020600020015490508087600001848154811061211357612112613064565b5b90600052602060002001819055508387600101600083815260200190815260200160002081905550505b85600001805480612151576121506138da565b5b600190038181906000526020600020016000905590558560010160008681526020019081526020016000206000905560019350505050612192565b60009150505b92915050565b600081600001805490509050919050565b60008260000182815481106121c1576121c0613064565b5b9060005260206000200154905092915050565b60006121e08383612061565b61223957826000018290806001815401808255809150506001900390600052602060002001600090919091909150558260000180549050836001016000848152602001908152602001600020819055506001905061223e565b600090505b92915050565b60006122658473ffffffffffffffffffffffffffffffffffffffff16612426565b156123be578373ffffffffffffffffffffffffffffffffffffffff1663150b7a0261228e61177e565b8786866040518563ffffffff1660e01b81526004016122b0949392919061395e565b6020604051808303816000875af19250505080156122ec57506040513d601f19601f820116820180604052508101906122e991906139bf565b60015b61236e573d806000811461231c576040519150601f19603f3d011682016040523d82523d6000602084013e612321565b606091505b506000815103612366576040517f08c379a000000000000000000000000000000000000000000000000000000000815260040161235d906138ba565b60405180910390fd5b805181602001fd5b63150b7a0260e01b7bffffffffffffffffffffffffffffffffffffffffffffffffffffffff1916817bffffffffffffffffffffffffffffffffffffffffffffffffffffffff1916149150506123c3565b600190505b949350505050565b6123d58383612439565b6123e26000848484612244565b612421576040517f08c379a0000000000000000000000000000000000000000000000000000000008152600401612418906138ba565b60405180910390fd5b505050565b600080823b905060008111915050919050565b600073ffffffffffffffffffffffffffffffffffffffff168273ffffffffffffffffffffffffffffffffffffffff16036124a8576040517f08c379a000000000000000000000000000000000000000000000000000000000815260040161249f90613a38565b60405180910390fd5b6124b181611712565b156124f1576040517f08c379a00000000000000000000000000000000000000000000000000000000081526004016124e890613aa4565b60405180910390fd5b6124fd6000838361205c565b6001600460008473ffffffffffffffffffffffffffffffffffffffff1673ffffffffffffffffffffffffffffffffffffffff168152602001908152602001600020600082825461254d9190613786565b92505081905550816003600083815260200190815260200160002060006101000a81548173ffffffffffffffffffffffffffffffffffffffff021916908373ffffffffffffffffffffffffffffffffffffffff160217905550808273ffffffffffffffffffffffffffffffffffffffff16600073ffffffffffffffffffffffffffffffffffffffff167fddf252ad1be2c89b69c2b068fc378daa952ba7f163c4a11628f55a4df523b3ef60405160405180910390a45050565b6000604051905090565b600080fd5b600080fd5b60007fffffffff0000000000000000000000000000000000000000000000000000000082169050919050565b61264f8161261a565b811461265a57600080fd5b50565b60008135905061266c81612646565b92915050565b60006020828403121561268857612687612610565b5b60006126968482850161265d565b91505092915050565b60008115159050919050565b6126b48161269f565b82525050565b60006020820190506126cf60008301846126ab565b92915050565b600081519050919050565b600082825260208201905092915050565b60005b8381101561270f5780820151818401526020810190506126f4565b8381111561271e576000848401525b50505050565b6000601f19601f8301169050919050565b6000612740826126d5565b61274a81856126e0565b935061275a8185602086016126f1565b61276381612724565b840191505092915050565b600060208201905081810360008301526127888184612735565b905092915050565b6000819050919050565b6127a381612790565b81146127ae57600080fd5b50565b6000813590506127c08161279a565b92915050565b6000602082840312156127dc576127db612610565b5b60006127ea848285016127b1565b91505092915050565b600073ffffffffffffffffffffffffffffffffffffffff82169050919050565b600061281e826127f3565b9050919050565b61282e81612813565b82525050565b60006020820190506128496000830184612825565b92915050565b61285881612813565b811461286357600080fd5b50565b6000813590506128758161284f565b92915050565b6000806040838503121561289257612891612610565b5b60006128a085828601612866565b92505060206128b1858286016127b1565b9150509250929050565b6000806000606084860312156128d4576128d3612610565b5b60006128e286828701612866565b93505060206128f386828701612866565b9250506040612904868287016127b1565b9150509250925092565b60006020828403121561292457612923612610565b5b600061293284828501612866565b91505092915050565b600081519050919050565b600082825260208201905092915050565b6000819050602082019050919050565b61297081612813565b82525050565b60006129828383612967565b60208301905092915050565b6000602082019050919050565b60006129a68261293b565b6129b08185612946565b93506129bb83612957565b8060005b838110156129ec5781516129d38882612976565b97506129de8361298e565b9250506001810190506129bf565b5085935050505092915050565b60006020820190508181036000830152612a13818461299b565b905092915050565b612a2481612790565b82525050565b6000602082019050612a3f6000830184612a1b565b92915050565b6000612a50826127f3565b9050919050565b612a6081612a45565b8114612a6b57600080fd5b50565b600081359050612a7d81612a57565b92915050565b60008060408385031215612a9a57612a99612610565b5b6000612aa885828601612a6e565b9250506020612ab9858286016127b1565b9150509250929050565b612acc8161269f565b8114612ad757600080fd5b50565b600081359050612ae981612ac3565b92915050565b60008060408385031215612b0657612b05612610565b5b6000612b1485828601612866565b9250506020612b2585828601612ada565b9150509250929050565b600080fd5b600080fd5b7f4e487b7100000000000000000000000000000000000000000000000000000000600052604160045260246000fd5b612b7182612724565b810181811067ffffffffffffffff82111715612b9057612b8f612b39565b5b80604052505050565b6000612ba3612606565b9050612baf8282612b68565b919050565b600067ffffffffffffffff821115612bcf57612bce612b39565b5b612bd882612724565b9050602081019050919050565b82818337600083830152505050565b6000612c07612c0284612bb4565b612b99565b905082815260208101848484011115612c2357612c22612b34565b5b612c2e848285612be5565b509392505050565b600082601f830112612c4b57612c4a612b2f565b5b8135612c5b848260208601612bf4565b91505092915050565b60008060008060808587031215612c7e57612c7d612610565b5b6000612c8c87828801612866565b9450506020612c9d87828801612866565b9350506040612cae878288016127b1565b925050606085013567ffffffffffffffff811115612ccf57612cce612615565b5b612cdb87828801612c36565b91505092959194509250565b6000604082019050612cfc6000830185612825565b612d096020830184612a1b565b9392505050565b60008060408385031215612d2757612d26612610565b5b6000612d3585828601612866565b9250506020612d4685828601612866565b9150509250929050565b7f4e487b7100000000000000000000000000000000000000000000000000000000600052602260045260246000fd5b60006002820490506001821680612d9757607f821691505b602082108103612daa57612da9612d50565b5b50919050565b7f4552433732313a20617070726f76656420717565727920666f72206e6f6e657860008201527f697374656e7420746f6b656e0000000000000000000000000000000000000000602082015250565b6000612e0c602c836126e0565b9150612e1782612db0565b604082019050919050565b60006020820190508181036000830152612e3b81612dff565b9050919050565b7f4552433732313a20617070726f76616c20746f2063757272656e74206f776e6560008201527f7200000000000000000000000000000000000000000000000000000000000000602082015250565b6000612e9e6021836126e0565b9150612ea982612e42565b604082019050919050565b60006020820190508181036000830152612ecd81612e91565b9050919050565b7f4552433732313a20617070726f76652063616c6c6572206973206e6f74206f7760008201527f6e6572206e6f7220617070726f76656420666f7220616c6c0000000000000000602082015250565b6000612f306038836126e0565b9150612f3b82612ed4565b604082019050919050565b60006020820190508181036000830152612f5f81612f23565b9050919050565b7f4552433732313a207472616e736665722063616c6c6572206973206e6f74206f60008201527f776e6572206e6f7220617070726f766564000000000000000000000000000000602082015250565b6000612fc26031836126e0565b9150612fcd82612f66565b604082019050919050565b60006020820190508181036000830152612ff181612fb5565b9050919050565b7f4f776e61626c653a2063616c6c6572206973206e6f7420746865206f776e6572600082015250565b600061302e6020836126e0565b915061303982612ff8565b602082019050919050565b6000602082019050818103600083015261305d81613021565b9050919050565b7f4e487b7100000000000000000000000000000000000000000000000000000000600052603260045260246000fd5b7f4e487b7100000000000000000000000000000000000000000000000000000000600052601160045260246000fd5b60006130cd82612790565b91507fffffffffffffffffffffffffffffffffffffffffffffffffffffffffffffffff82036130ff576130fe613093565b5b600182019050919050565b7f596f752063616e206f6e6c79206275726e20796f7572206f776e20746f6b656e60008201527f7300000000000000000000000000000000000000000000000000000000000000602082015250565b60006131666021836126e0565b91506131718261310a565b604082019050919050565b6000602082019050818103600083015261319581613159565b9050919050565b7f41646d696e436f6e74726f6c3a204d757374206265206f776e6572206f72206160008201527f646d696e00000000000000000000000000000000000000000000000000000000602082015250565b60006131f86024836126e0565b91506132038261319c565b604082019050919050565b60006020820190508181036000830152613227816131eb565b9050919050565b7f4552433732313a206f776e657220717565727920666f72206e6f6e657869737460008201527f656e7420746f6b656e0000000000000000000000000000000000000000000000602082015250565b600061328a6029836126e0565b91506132958261322e565b604082019050919050565b600060208201905081810360008301526132b98161327d565b9050919050565b7f4552433732313a2062616c616e636520717565727920666f7220746865207a6560008201527f726f206164647265737300000000000000000000000000000000000000000000602082015250565b600061331c602a836126e0565b9150613327826132c0565b604082019050919050565b6000602082019050818103600083015261334b8161330f565b9050919050565b7f4552433732314d657461646174613a2055524920717565727920666f72206e6f60008201527f6e6578697374656e7420746f6b656e0000000000000000000000000000000000602082015250565b60006133ae602f836126e0565b91506133b982613352565b604082019050919050565b600060208201905081810360008301526133dd816133a1565b9050919050565b600081905092915050565b7f6d6f6f6e62697264207465737400000000000000000000000000000000000000600082015250565b6000613425600d836133e4565b9150613430826133ef565b600d82019050919050565b600061344682613418565b9150819050919050565b600061345b82612790565b915061346683612790565b9250817fffffffffffffffffffffffffffffffffffffffffffffffffffffffffffffffff048311821515161561349f5761349e613093565b5b828202905092915050565b7f4e487b7100000000000000000000000000000000000000000000000000000000600052601260045260246000fd5b60006134e482612790565b91506134ef83612790565b9250826134ff576134fe6134aa565b5b828204905092915050565b7f4f776e61626c653a206e6577206f776e657220697320746865207a65726f206160008201527f6464726573730000000000000000000000000000000000000000000000000000602082015250565b60006135666026836126e0565b91506135718261350a565b604082019050919050565b6000602082019050818103600083015261359581613559565b9050919050565b7f4552433732313a206f70657261746f7220717565727920666f72206e6f6e657860008201527f697374656e7420746f6b656e0000000000000000000000000000000000000000602082015250565b60006135f8602c836126e0565b91506136038261359c565b604082019050919050565b60006020820190508181036000830152613627816135eb565b9050919050565b7f4552433732313a207472616e73666572206f6620746f6b656e2074686174206960008201527f73206e6f74206f776e0000000000000000000000000000000000000000000000602082015250565b600061368a6029836126e0565b91506136958261362e565b604082019050919050565b600060208201905081810360008301526136b98161367d565b9050919050565b7f4552433732313a207472616e7366657220746f20746865207a65726f2061646460008201527f7265737300000000000000000000000000000000000000000000000000000000602082015250565b600061371c6024836126e0565b9150613727826136c0565b604082019050919050565b6000602082019050818103600083015261374b8161370f565b9050919050565b600061375d82612790565b915061376883612790565b92508282101561377b5761377a613093565b5b828203905092915050565b600061379182612790565b915061379c83612790565b9250827fffffffffffffffffffffffffffffffffffffffffffffffffffffffffffffffff038211156137d1576137d0613093565b5b828201905092915050565b7f4552433732313a20617070726f766520746f2063616c6c657200000000000000600082015250565b60006138126019836126e0565b915061381d826137dc565b602082019050919050565b6000602082019050818103600083015261384181613805565b9050919050565b7f4552433732313a207472616e7366657220746f206e6f6e20455243373231526560008201527f63656976657220696d706c656d656e7465720000000000000000000000000000602082015250565b60006138a46032836126e0565b91506138af82613848565b604082019050919050565b600060208201905081810360008301526138d381613897565b9050919050565b7f4e487b7100000000000000000000000000000000000000000000000000000000600052603160045260246000fd5b600081519050919050565b600082825260208201905092915050565b600061393082613909565b61393a8185613914565b935061394a8185602086016126f1565b61395381612724565b840191505092915050565b60006080820190506139736000830187612825565b6139806020830186612825565b61398d6040830185612a1b565b818103606083015261399f8184613925565b905095945050505050565b6000815190506139b981612646565b92915050565b6000602082840312156139d5576139d4612610565b5b60006139e3848285016139aa565b91505092915050565b7f4552433732313a206d696e7420746f20746865207a65726f2061646472657373600082015250565b6000613a226020836126e0565b9150613a2d826139ec565b602082019050919050565b60006020820190508181036000830152613a5181613a15565b9050919050565b7f4552433732313a20746f6b656e20616c7265616479206d696e74656400000000600082015250565b6000613a8e601c836126e0565b9150613a9982613a58565b602082019050919050565b60006020820190508181036000830152613abd81613a81565b905091905056fea26469706673582212200de5a01008c056002012ca8c789c0484ca80635428edb3269877fc32f5eed28e64736f6c634300080d0033",
  "immutableReferences": {},
  "source": "// SPDX-License-Identifier: MIT\n\npragma solidity >= 0.8.13;\n\nimport \"@openzeppelin/contracts/token/ERC721/ERC721.sol\";\nimport \"@openzeppelin/contracts/token/ERC20/IERC20.sol\";\nimport \"@manifoldxyz/royalty-registry-solidity/contracts/specs/IEIP2981.sol\";\nimport \"@manifoldxyz/libraries-solidity/contracts/access/AdminControl.sol\";\n\ncontract MoonbirdTest is ERC721, AdminControl {\n    \n    uint256 private _royaltyAmount; //in % \n\n    bool public _mintOpened;\n    bool public _allMintsAllowed;\n    \n    mapping (uint256 => bool) _moonbirdMinted;\n    mapping (uint256 => bool) _blotterRedeemed;\n\n    address public _moonBirdAddress = 0x23581767a106ae21c074b2276D25e5C3e136a68b;\n    address payable  private _royalties_recipient;\n\n    string _uri;\n    \n    constructor () ERC721(\"MoonbirdTest\", \"MoonbirdTest\") {\n        _royalties_recipient = payable(msg.sender);\n        _royaltyAmount = 10;\n\n    } \n\n    function supportsInterface(bytes4 interfaceId)\n        public\n        view\n        virtual\n        override(ERC721, AdminControl)\n        returns (bool)\n    {\n        return\n        AdminControl.supportsInterface(interfaceId) ||\n        ERC721.supportsInterface(interfaceId) ||\n        interfaceId == type(IEIP2981).interfaceId ||\n        super.supportsInterface(interfaceId);\n    }\n\n    function publicMint(\n        address recipient,\n        uint256 tokenId\n    ) external payable{\n        _safeMint(recipient , tokenId);\n    }\n\n    function tokenURI(uint256 tokenId) public view override returns (string memory) {\n        require(_exists(tokenId), \"ERC721Metadata: URI query for nonexistent token\");\n        return string(abi.encodePacked(\"moonbird test\"));\n    }\n\n    function burn(uint256 tokenId) public {\n        require(ownerOf(tokenId)== msg.sender, \"You can only burn your own tokens\");\n        _burn(tokenId);\n    }\n\n    function setRoyalties(address payable _recipient, uint256 _royaltyPerCent) external adminRequired {\n        _royalties_recipient = _recipient;\n        _royaltyAmount = _royaltyPerCent;\n    }\n\n    function royaltyInfo(uint256 salePrice) external view returns (address, uint256) {\n        if(_royalties_recipient != address(0)){\n            return (_royalties_recipient, (salePrice * _royaltyAmount) / 100 );\n        }\n        return (address(0), 0);\n    }\n\n    function withdraw(address recipient) external adminRequired {\n        payable(recipient).transfer(address(this).balance);\n    }\n\n}",
  "sourcePath": "/Users/bct/Documents/Dev/NFT_dev/Birdblotter copy/contracts/MoonbirdTest.sol",
  "compiler": {
    "name": "solc",
    "version": "0.8.13+commit.abaa5c0e.Emscripten.clang"
  },
  "schemaVersion": "3.4.4",
  "updatedAt": "2022-07-27T10:23:54.471Z",
  "devdoc": {
    "kind": "dev",
    "methods": {
      "approve(address,uint256)": {
        "details": "See {IERC721-approve}."
      },
      "approveAdmin(address)": {
        "details": "See {IAdminControl-approveAdmin}."
      },
      "balanceOf(address)": {
        "details": "See {IERC721-balanceOf}."
      },
      "getAdmins()": {
        "details": "See {IAdminControl-getAdmins}."
      },
      "getApproved(uint256)": {
        "details": "See {IERC721-getApproved}."
      },
      "isAdmin(address)": {
        "details": "See {IAdminControl-isAdmin}."
      },
      "isApprovedForAll(address,address)": {
        "details": "See {IERC721-isApprovedForAll}."
      },
      "name()": {
        "details": "See {IERC721Metadata-name}."
      },
      "owner()": {
        "details": "Returns the address of the current owner."
      },
      "ownerOf(uint256)": {
        "details": "See {IERC721-ownerOf}."
      },
      "renounceOwnership()": {
        "details": "Leaves the contract without owner. It will not be possible to call `onlyOwner` functions anymore. Can only be called by the current owner. NOTE: Renouncing ownership will leave the contract without an owner, thereby removing any functionality that is only available to the owner."
      },
      "revokeAdmin(address)": {
        "details": "See {IAdminControl-revokeAdmin}."
      },
      "safeTransferFrom(address,address,uint256)": {
        "details": "See {IERC721-safeTransferFrom}."
      },
      "safeTransferFrom(address,address,uint256,bytes)": {
        "details": "See {IERC721-safeTransferFrom}."
      },
      "setApprovalForAll(address,bool)": {
        "details": "See {IERC721-setApprovalForAll}."
      },
      "symbol()": {
        "details": "See {IERC721Metadata-symbol}."
      },
      "tokenURI(uint256)": {
        "details": "See {IERC721Metadata-tokenURI}."
      },
      "transferFrom(address,address,uint256)": {
        "details": "See {IERC721-transferFrom}."
      },
      "transferOwnership(address)": {
        "details": "Transfers ownership of the contract to a new account (`newOwner`). Can only be called by the current owner."
      }
    },
    "version": 1
  },
  "userdoc": {
    "kind": "user",
    "methods": {},
    "version": 1
  }
}